{
  "address": "0x4c1E877E3e4B99b8a2746E773C34d0e3299e799D",
  "abi": [
    {
      "inputs": [
        {
          "internalType": "string",
          "name": "_name",
          "type": "string"
        },
        {
          "internalType": "string",
          "name": "_symbol",
          "type": "string"
        },
        {
          "internalType": "address payable",
          "name": "_stationLabs",
          "type": "address"
        },
        {
          "internalType": "address",
          "name": "_signer",
          "type": "address"
        }
      ],
      "stateMutability": "nonpayable",
      "type": "constructor"
    },
    {
      "anonymous": false,
      "inputs": [
        {
          "indexed": true,
          "internalType": "address",
          "name": "owner",
          "type": "address"
        },
        {
          "indexed": true,
          "internalType": "address",
          "name": "approved",
          "type": "address"
        },
        {
          "indexed": true,
          "internalType": "uint256",
          "name": "tokenId",
          "type": "uint256"
        }
      ],
      "name": "Approval",
      "type": "event"
    },
    {
      "anonymous": false,
      "inputs": [
        {
          "indexed": true,
          "internalType": "address",
          "name": "owner",
          "type": "address"
        },
        {
          "indexed": true,
          "internalType": "address",
          "name": "operator",
          "type": "address"
        },
        {
          "indexed": false,
          "internalType": "bool",
          "name": "approved",
          "type": "bool"
        }
      ],
      "name": "ApprovalForAll",
      "type": "event"
    },
    {
      "anonymous": false,
      "inputs": [
        {
          "indexed": false,
          "internalType": "address",
          "name": "_newOperator",
          "type": "address"
        }
      ],
      "name": "ChangeOperator",
      "type": "event"
    },
    {
      "anonymous": false,
      "inputs": [
        {
          "indexed": true,
          "internalType": "address",
          "name": "from",
          "type": "address"
        },
        {
          "indexed": true,
          "internalType": "address",
          "name": "to",
          "type": "address"
        },
        {
          "indexed": true,
          "internalType": "uint256",
          "name": "tokenId",
          "type": "uint256"
        }
      ],
      "name": "Transfer",
      "type": "event"
    },
    {
      "inputs": [],
      "name": "PRICE",
      "outputs": [
        {
          "internalType": "uint256",
          "name": "",
          "type": "uint256"
        }
      ],
      "stateMutability": "view",
      "type": "function"
    },
    {
      "inputs": [],
      "name": "SALE_LIMIT",
      "outputs": [
        {
          "internalType": "uint256",
          "name": "",
          "type": "uint256"
        }
      ],
      "stateMutability": "view",
      "type": "function"
    },
    {
      "inputs": [],
      "name": "TEAM_LIMIT",
      "outputs": [
        {
          "internalType": "uint256",
          "name": "",
          "type": "uint256"
        }
      ],
      "stateMutability": "view",
      "type": "function"
    },
    {
      "inputs": [
        {
          "internalType": "address",
          "name": "to",
          "type": "address"
        },
        {
          "internalType": "uint256",
          "name": "tokenId",
          "type": "uint256"
        }
      ],
      "name": "approve",
      "outputs": [],
      "stateMutability": "nonpayable",
      "type": "function"
    },
    {
      "inputs": [
        {
          "internalType": "address",
          "name": "owner",
          "type": "address"
        }
      ],
      "name": "balanceOf",
      "outputs": [
        {
          "internalType": "uint256",
          "name": "",
          "type": "uint256"
        }
      ],
      "stateMutability": "view",
      "type": "function"
    },
    {
      "inputs": [
        {
          "internalType": "address",
          "name": "",
          "type": "address"
        }
      ],
      "name": "bought",
      "outputs": [
        {
          "internalType": "uint256",
          "name": "",
          "type": "uint256"
        }
      ],
      "stateMutability": "view",
      "type": "function"
    },
    {
      "inputs": [
        {
          "internalType": "uint256",
          "name": "_count",
          "type": "uint256"
        },
        {
          "internalType": "uint256",
          "name": "_maxCount",
          "type": "uint256"
        },
        {
          "internalType": "uint8",
          "name": "_v",
          "type": "uint8"
        },
        {
          "internalType": "bytes32",
          "name": "_r",
          "type": "bytes32"
        },
        {
          "internalType": "bytes32",
          "name": "_s",
          "type": "bytes32"
        }
      ],
      "name": "buy",
      "outputs": [],
      "stateMutability": "payable",
      "type": "function"
    },
    {
      "inputs": [
        {
          "internalType": "address",
          "name": "_newOperator",
          "type": "address"
        }
      ],
      "name": "changeOperator",
      "outputs": [],
      "stateMutability": "nonpayable",
      "type": "function"
    },
    {
      "inputs": [
        {
          "internalType": "address payable",
          "name": "_newStationLabs",
          "type": "address"
        }
      ],
      "name": "changeStationLabs",
      "outputs": [],
      "stateMutability": "nonpayable",
      "type": "function"
    },
    {
      "inputs": [
        {
          "internalType": "uint256",
          "name": "_amount",
          "type": "uint256"
        },
        {
          "internalType": "uint8",
          "name": "_v",
          "type": "uint8"
        },
        {
          "internalType": "bytes32",
          "name": "_r",
          "type": "bytes32"
        },
        {
          "internalType": "bytes32",
          "name": "_s",
          "type": "bytes32"
        }
      ],
      "name": "claimEthSkins",
      "outputs": [],
      "stateMutability": "nonpayable",
      "type": "function"
    },
    {
      "inputs": [
        {
          "internalType": "address",
          "name": "",
          "type": "address"
        }
      ],
      "name": "claimed",
      "outputs": [
        {
          "internalType": "bool",
          "name": "",
          "type": "bool"
        }
      ],
      "stateMutability": "view",
      "type": "function"
    },
    {
      "inputs": [
        {
          "internalType": "uint256",
          "name": "tokenId",
          "type": "uint256"
        }
      ],
      "name": "getApproved",
      "outputs": [
        {
          "internalType": "address",
          "name": "",
          "type": "address"
        }
      ],
      "stateMutability": "view",
      "type": "function"
    },
    {
      "inputs": [],
      "name": "getStuckFunds",
      "outputs": [],
      "stateMutability": "nonpayable",
      "type": "function"
    },
    {
      "inputs": [
        {
          "internalType": "address",
          "name": "owner",
          "type": "address"
        },
        {
          "internalType": "address",
          "name": "operator",
          "type": "address"
        }
      ],
      "name": "isApprovedForAll",
      "outputs": [
        {
          "internalType": "bool",
          "name": "",
          "type": "bool"
        }
      ],
      "stateMutability": "view",
      "type": "function"
    },
    {
      "inputs": [
        {
          "internalType": "address",
          "name": "_to",
          "type": "address"
        },
        {
          "internalType": "uint256",
          "name": "_count",
          "type": "uint256"
        }
      ],
      "name": "mintTo",
      "outputs": [],
      "stateMutability": "nonpayable",
      "type": "function"
    },
    {
      "inputs": [],
      "name": "name",
      "outputs": [
        {
          "internalType": "string",
          "name": "",
          "type": "string"
        }
      ],
      "stateMutability": "view",
      "type": "function"
    },
    {
      "inputs": [],
      "name": "owner",
      "outputs": [
        {
          "internalType": "address",
          "name": "",
          "type": "address"
        }
      ],
      "stateMutability": "view",
      "type": "function"
    },
    {
      "inputs": [
        {
          "internalType": "uint256",
          "name": "tokenId",
          "type": "uint256"
        }
      ],
      "name": "ownerOf",
      "outputs": [
        {
          "internalType": "address",
          "name": "",
          "type": "address"
        }
      ],
      "stateMutability": "view",
      "type": "function"
    },
    {
      "inputs": [
        {
          "internalType": "address",
          "name": "from",
          "type": "address"
        },
        {
          "internalType": "address",
          "name": "to",
          "type": "address"
        },
        {
          "internalType": "uint256",
          "name": "tokenId",
          "type": "uint256"
        }
      ],
      "name": "safeTransferFrom",
      "outputs": [],
      "stateMutability": "nonpayable",
      "type": "function"
    },
    {
      "inputs": [
        {
          "internalType": "address",
          "name": "from",
          "type": "address"
        },
        {
          "internalType": "address",
          "name": "to",
          "type": "address"
        },
        {
          "internalType": "uint256",
          "name": "tokenId",
          "type": "uint256"
        },
        {
          "internalType": "bytes",
          "name": "_data",
          "type": "bytes"
        }
      ],
      "name": "safeTransferFrom",
      "outputs": [],
      "stateMutability": "nonpayable",
      "type": "function"
    },
    {
      "inputs": [],
      "name": "saleIsActive",
      "outputs": [
        {
          "internalType": "bool",
          "name": "",
          "type": "bool"
        }
      ],
      "stateMutability": "view",
      "type": "function"
    },
    {
      "inputs": [
        {
          "internalType": "address",
          "name": "operator",
          "type": "address"
        },
        {
          "internalType": "bool",
          "name": "approved",
          "type": "bool"
        }
      ],
      "name": "setApprovalForAll",
      "outputs": [],
      "stateMutability": "nonpayable",
      "type": "function"
    },
    {
      "inputs": [
        {
          "internalType": "bool",
          "name": "_status",
          "type": "bool"
        }
      ],
      "name": "setSaleStatus",
      "outputs": [],
      "stateMutability": "nonpayable",
      "type": "function"
    },
    {
      "inputs": [
        {
          "internalType": "uint256",
          "name": "tokenId",
          "type": "uint256"
        },
        {
          "internalType": "string",
          "name": "_tokenURI",
          "type": "string"
        }
      ],
      "name": "setTokenURI",
      "outputs": [],
      "stateMutability": "nonpayable",
      "type": "function"
    },
    {
      "inputs": [],
      "name": "signer",
      "outputs": [
        {
          "internalType": "address",
          "name": "",
          "type": "address"
        }
      ],
      "stateMutability": "view",
      "type": "function"
    },
    {
      "inputs": [],
      "name": "sold",
      "outputs": [
        {
          "internalType": "uint256",
          "name": "",
          "type": "uint256"
        }
      ],
      "stateMutability": "view",
      "type": "function"
    },
    {
      "inputs": [],
      "name": "stationLabs",
      "outputs": [
        {
          "internalType": "address payable",
          "name": "",
          "type": "address"
        }
      ],
      "stateMutability": "view",
      "type": "function"
    },
    {
      "inputs": [
        {
          "internalType": "bytes4",
          "name": "interfaceId",
          "type": "bytes4"
        }
      ],
      "name": "supportsInterface",
      "outputs": [
        {
          "internalType": "bool",
          "name": "",
          "type": "bool"
        }
      ],
      "stateMutability": "view",
      "type": "function"
    },
    {
      "inputs": [],
      "name": "symbol",
      "outputs": [
        {
          "internalType": "string",
          "name": "",
          "type": "string"
        }
      ],
      "stateMutability": "view",
      "type": "function"
    },
    {
      "inputs": [],
      "name": "teamMinted",
      "outputs": [
        {
          "internalType": "uint256",
          "name": "",
          "type": "uint256"
        }
      ],
      "stateMutability": "view",
      "type": "function"
    },
    {
      "inputs": [
        {
          "internalType": "uint256",
          "name": "index",
          "type": "uint256"
        }
      ],
      "name": "tokenByIndex",
      "outputs": [
        {
          "internalType": "uint256",
          "name": "",
          "type": "uint256"
        }
      ],
      "stateMutability": "view",
      "type": "function"
    },
    {
      "inputs": [
        {
          "internalType": "address",
          "name": "owner",
          "type": "address"
        },
        {
          "internalType": "uint256",
          "name": "index",
          "type": "uint256"
        }
      ],
      "name": "tokenOfOwnerByIndex",
      "outputs": [
        {
          "internalType": "uint256",
          "name": "",
          "type": "uint256"
        }
      ],
      "stateMutability": "view",
      "type": "function"
    },
    {
      "inputs": [
        {
          "internalType": "uint256",
          "name": "tokenId",
          "type": "uint256"
        }
      ],
      "name": "tokenURI",
      "outputs": [
        {
          "internalType": "string",
          "name": "",
          "type": "string"
        }
      ],
      "stateMutability": "view",
      "type": "function"
    },
    {
      "inputs": [],
      "name": "totalSupply",
      "outputs": [
        {
          "internalType": "uint256",
          "name": "",
          "type": "uint256"
        }
      ],
      "stateMutability": "view",
      "type": "function"
    },
    {
      "inputs": [
        {
          "internalType": "address",
          "name": "from",
          "type": "address"
        },
        {
          "internalType": "address",
          "name": "to",
          "type": "address"
        },
        {
          "internalType": "uint256",
          "name": "tokenId",
          "type": "uint256"
        }
      ],
      "name": "transferFrom",
      "outputs": [],
      "stateMutability": "nonpayable",
      "type": "function"
    }
  ],
  "transactionHash": "0x60f2e40697bc2fc4b7809dd39d6d00ab88be67de4d42e539cc7d8c3014d44389",
  "args": [
    "Station: Callisto-6",
    "CAL6",
    "0x6BDD6Bb68Ec6927F56749b46746F0AFA7CdA9F3c",
    "0x9dBfB700505854c2ab7d545482cec74D4771A091"
  ],
  "solcInputHash": "41286d6d5ef06cc03fee211cfab781b2",
  "bytecode": "0x6080604052600e805460ff191660011790553480156200001e57600080fd5b5060405162002e2238038062002e22833981016040819052620000419162000221565b8351849084906200005a906000906020850190620000c4565b50805162000070906001906020840190620000c4565b5050600b8054336001600160a01b031991821617909155600e8054610100600160a81b0319166101006001600160a01b0396871602179055600f805490911692909316919091179091555062000321915050565b828054620000d290620002b5565b90600052602060002090601f016020900481019282620000f6576000855562000141565b82601f106200011157805160ff191683800117855562000141565b8280016001018555821562000141579182015b828111156200014157825182559160200191906001019062000124565b506200014f92915062000153565b5090565b5b808211156200014f576000815560010162000154565b600082601f8301126200017c57600080fd5b81516001600160401b0380821115620001995762000199620002f2565b604051601f8301601f19908116603f01168101908282118183101715620001c457620001c4620002f2565b81604052838152602092508683858801011115620001e157600080fd5b600091505b83821015620002055785820183015181830184015290820190620001e6565b83821115620002175760008385830101525b9695505050505050565b600080600080608085870312156200023857600080fd5b84516001600160401b03808211156200025057600080fd5b6200025e888389016200016a565b955060208701519150808211156200027557600080fd5b5062000284878288016200016a565b9350506040850151620002978162000308565b6060860151909250620002aa8162000308565b939692955090935050565b600181811c90821680620002ca57607f821691505b60208210811415620002ec57634e487b7160e01b600052602260045260246000fd5b50919050565b634e487b7160e01b600052604160045260246000fd5b6001600160a01b03811681146200031e57600080fd5b50565b612af180620003316000396000f3fe6080604052600436106102045760003560e01c806346fdcb4611610118578063a22cb465116100a0578063d897833e1161006f578063d897833e146105db578063e8b5498d146105fb578063e985e9c514610611578063eb8d24441461065a578063ef23571d1461067457600080fd5b8063a22cb4651461054b578063b88d4fde1461056b578063c87b56dd1461058b578063c884ef83146105ab57600080fd5b806370a08231116100e757806370a08231146104b95780638d859f3e146104d95780638da5cb5b146104f657806395d89b4114610516578063998b59491461052b57600080fd5b806346fdcb46146104395780634f6ccce71461044c5780636352211e1461046c578063667022fd1461048c57600080fd5b8063162094c41161019b57806323b872dd1161016a57806323b872dd146103a35780632f745c59146103c3578063368bf74e146103e357806342842e0e146103f9578063449a52f81461041957600080fd5b8063162094c41461033857806318160ddd14610358578063212e8f671461036d578063238ac9331461038357600080fd5b806306fdde03116101d757806306fdde03146102995780630804fa45146102bb578063081812fc146102f8578063095ea7b31461031857600080fd5b806301ffc9a71461020957806302c7e7af1461023e57806303f8ee411461026257806306394c9b14610279575b600080fd5b34801561021557600080fd5b5061022961022436600461261e565b610694565b60405190151581526020015b60405180910390f35b34801561024a57600080fd5b50610254600c5481565b604051908152602001610235565b34801561026e57600080fd5b506102776106a5565b005b34801561028557600080fd5b5061027761029436600461248b565b6106eb565b3480156102a557600080fd5b506102ae610756565b604051610235919061285d565b3480156102c757600080fd5b50600e546102e09061010090046001600160a01b031681565b6040516001600160a01b039091168152602001610235565b34801561030457600080fd5b506102e0610313366004612658565b6107e8565b34801561032457600080fd5b506102776103333660046125d7565b610875565b34801561034457600080fd5b50610277610353366004612671565b61098b565b34801561036457600080fd5b50600854610254565b34801561037957600080fd5b5061025461232881565b34801561038f57600080fd5b50600f546102e0906001600160a01b031681565b3480156103af57600080fd5b506102776103be3660046124e1565b6109b0565b3480156103cf57600080fd5b506102546103de3660046125d7565b6109e1565b3480156103ef57600080fd5b506102546103e881565b34801561040557600080fd5b506102776104143660046124e1565b610a77565b34801561042557600080fd5b506102776104343660046125d7565b610a92565b6102776104473660046126cc565b610b6c565b34801561045857600080fd5b50610254610467366004612658565b610eda565b34801561047857600080fd5b506102e0610487366004612658565b610f6d565b34801561049857600080fd5b506102546104a736600461248b565b60106020526000908152604090205481565b3480156104c557600080fd5b506102546104d436600461248b565b610fe4565b3480156104e557600080fd5b50610254680ad78ebc5ac620000081565b34801561050257600080fd5b50600b546102e0906001600160a01b031681565b34801561052257600080fd5b506102ae61106b565b34801561053757600080fd5b5061027761054636600461248b565b61107a565b34801561055757600080fd5b506102776105663660046125a2565b6110be565b34801561057757600080fd5b50610277610586366004612522565b611183565b34801561059757600080fd5b506102ae6105a6366004612658565b6111bb565b3480156105b757600080fd5b506102296105c636600461248b565b60116020526000908152604090205460ff1681565b3480156105e757600080fd5b506102776105f6366004612603565b6111c6565b34801561060757600080fd5b50610254600d5481565b34801561061d57600080fd5b5061022961062c3660046124a8565b6001600160a01b03918216600090815260056020908152604080832093909416825291909152205460ff1690565b34801561066657600080fd5b50600e546102299060ff1681565b34801561068057600080fd5b5061027761068f366004612713565b6111f0565b600061069f8261137f565b92915050565b600b546001600160a01b031633146106bc57600080fd5b60405133904780156108fc02916000818181858888f193505050501580156106e8573d6000803e3d6000fd5b50565b600b546001600160a01b0316331461070257600080fd5b600b80546001600160a01b0319166001600160a01b0383169081179091556040519081527f8eb831fe42156caaf4721a87ad40c6e662b893dbeee76d7a3ed2564a318b091c9060200160405180910390a150565b606060008054610765906129b8565b80601f0160208091040260200160405190810160405280929190818152602001828054610791906129b8565b80156107de5780601f106107b3576101008083540402835291602001916107de565b820191906000526020600020905b8154815290600101906020018083116107c157829003601f168201915b5050505050905090565b60006107f3826113a4565b6108595760405162461bcd60e51b815260206004820152602c60248201527f4552433732313a20617070726f76656420717565727920666f72206e6f6e657860448201526b34b9ba32b73a103a37b5b2b760a11b60648201526084015b60405180910390fd5b506000908152600460205260409020546001600160a01b031690565b600061088082610f6d565b9050806001600160a01b0316836001600160a01b031614156108ee5760405162461bcd60e51b815260206004820152602160248201527f4552433732313a20617070726f76616c20746f2063757272656e74206f776e656044820152603960f91b6064820152608401610850565b336001600160a01b038216148061090a575061090a813361062c565b61097c5760405162461bcd60e51b815260206004820152603860248201527f4552433732313a20617070726f76652063616c6c6572206973206e6f74206f7760448201527f6e6572206e6f7220617070726f76656420666f7220616c6c00000000000000006064820152608401610850565b61098683836113c1565b505050565b600b546001600160a01b031633146109a257600080fd5b6109ac828261142f565b5050565b6109ba33826114ba565b6109d65760405162461bcd60e51b8152600401610850906128c2565b6109868383836115a4565b60006109ec83610fe4565b8210610a4e5760405162461bcd60e51b815260206004820152602b60248201527f455243373231456e756d657261626c653a206f776e657220696e646578206f7560448201526a74206f6620626f756e647360a81b6064820152608401610850565b506001600160a01b03919091166000908152600660209081526040808320938352929052205490565b61098683838360405180602001604052806000815250611183565b600b546001600160a01b03163314610aa957600080fd5b600d54610ab8906103e861295e565b811115610ac457600080fd5b60008111610ad157600080fd5b60005b81811015610b50576000610ae73061174f565b610af8610af360085490565b6118f7565b604051602001610b099291906127a9565b6040516020818303038152906040529050610b3d84610b2760085490565b83604051806020016040528060008152506119f5565b5080610b48816129f3565b915050610ad4565b5080600d6000828254610b639190612913565b90915550505050565b60008511610bbc5760405162461bcd60e51b815260206004820152601f60248201527f53706163657368697020636f756e742063616e6e6f74206265205a65726f21006044820152606401610850565b600c54610bcb9061232861295e565b851115610c0f5760405162461bcd60e51b815260206004820152601260248201527153616c65206f7574206f662073746f636b2160701b6044820152606401610850565b600e5460ff16610c575760405162461bcd60e51b815260206004820152601360248201527253616c65206973206e6f74206163746976652160681b6044820152606401610850565b336000908152601060205260409020548490610c74908790612913565b1115610c7f57600080fd5b6040516bffffffffffffffffffffffff193360601b1660208201526034810185905260009060540160408051601f198184030181529190528051602090910120600f549091506001600160a01b0316610cda82868686611a0a565b6001600160a01b031614610ced57600080fd5b6000610d02680ad78ebc5ac62000008861293f565b9050803414610d885760405162461bcd60e51b815260206004820152604660248201527f53656e74206574686572206973206e6f7420657175616c20746f20746865207260448201527f6571756972656420616d6f756e7420666f7220707572636861736520636f6d706064820152653632ba34b7b760d11b608482015260a401610850565b60005b87811015610dec576000610d9e3061174f565b610daa610af360085490565b604051602001610dbb9291906127a9565b6040516020818303038152906040529050610dd933610b2760085490565b5080610de4816129f3565b915050610d8b565b5086600c6000828254610dff9190612913565b90915550503360009081526010602052604081208054899290610e23908490612913565b9091555050600e5460405160009161010090046001600160a01b03169034908381818185875af1925050503d8060008114610e7a576040519150601f19603f3d011682016040523d82523d6000602084013e610e7f565b606091505b5050905080610ed05760405162461bcd60e51b815260206004820152601760248201527f4661696c656420746f20666f72776172642066756e64730000000000000000006044820152606401610850565b5050505050505050565b6000610ee560085490565b8210610f485760405162461bcd60e51b815260206004820152602c60248201527f455243373231456e756d657261626c653a20676c6f62616c20696e646578206f60448201526b7574206f6620626f756e647360a01b6064820152608401610850565b60088281548110610f5b57610f5b612a64565b90600052602060002001549050919050565b6000818152600260205260408120546001600160a01b03168061069f5760405162461bcd60e51b815260206004820152602960248201527f4552433732313a206f776e657220717565727920666f72206e6f6e657869737460448201526832b73a103a37b5b2b760b91b6064820152608401610850565b60006001600160a01b03821661104f5760405162461bcd60e51b815260206004820152602a60248201527f4552433732313a2062616c616e636520717565727920666f7220746865207a65604482015269726f206164647265737360b01b6064820152608401610850565b506001600160a01b031660009081526003602052604090205490565b606060018054610765906129b8565b600e5461010090046001600160a01b0316331461109657600080fd5b600e80546001600160a01b0390921661010002610100600160a81b0319909216919091179055565b6001600160a01b0382163314156111175760405162461bcd60e51b815260206004820152601960248201527f4552433732313a20617070726f766520746f2063616c6c6572000000000000006044820152606401610850565b3360008181526005602090815260408083206001600160a01b03871680855290835292819020805460ff191686151590811790915590519081529192917f17307eab39ab6107e8899845ad3d59bd9653f200f220920489ca2b5937696c31910160405180910390a35050565b61118d33836114ba565b6111a95760405162461bcd60e51b8152600401610850906128c2565b6111b584848484611abf565b50505050565b606061069f82611af2565b600b546001600160a01b031633146111dd57600080fd5b600e805460ff1916911515919091179055565b3360009081526011602052604090205460ff16156112505760405162461bcd60e51b815260206004820152601e60248201527f596f7520616c726561647920636c61696d656420796f757220736b696e7300006044820152606401610850565b6040516bffffffffffffffffffffffff193360601b1660208201526034810185905260009060540160408051601f198184030181529190528051602090910120600f549091506001600160a01b03166112ab82868686611a0a565b6001600160a01b0316146112be57600080fd5b60005b858110156113225760006112d43061174f565b6112e0610af360085490565b6040516020016112f19291906127a9565b604051602081830303815290604052905061130f33610b2760085490565b508061131a816129f3565b9150506112c1565b5084600c60008282546113359190612913565b90915550503360009081526010602052604081208054879290611359908490612913565b9091555050336000908152601160205260409020805460ff191660011790555050505050565b60006001600160e01b0319821663780e9d6360e01b148061069f575061069f82611c61565b6000908152600260205260409020546001600160a01b0316151590565b600081815260046020526040902080546001600160a01b0319166001600160a01b03841690811790915581906113f682610f6d565b6001600160a01b03167f8c5be1e5ebec7d5bd14f71427d1e84f3dd0314c0f7b2291e5b200ac8c7c3b92560405160405180910390a45050565b611438826113a4565b61149b5760405162461bcd60e51b815260206004820152602e60248201527f45524337323155524953746f726167653a2055524920736574206f66206e6f6e60448201526d32bc34b9ba32b73a103a37b5b2b760911b6064820152608401610850565b6000828152600a60209081526040909120825161098692840190612356565b60006114c5826113a4565b6115265760405162461bcd60e51b815260206004820152602c60248201527f4552433732313a206f70657261746f7220717565727920666f72206e6f6e657860448201526b34b9ba32b73a103a37b5b2b760a11b6064820152608401610850565b600061153183610f6d565b9050806001600160a01b0316846001600160a01b0316148061156c5750836001600160a01b0316611561846107e8565b6001600160a01b0316145b8061159c57506001600160a01b0380821660009081526005602090815260408083209388168352929052205460ff165b949350505050565b826001600160a01b03166115b782610f6d565b6001600160a01b03161461161f5760405162461bcd60e51b815260206004820152602960248201527f4552433732313a207472616e73666572206f6620746f6b656e2074686174206960448201526839903737ba1037bbb760b91b6064820152608401610850565b6001600160a01b0382166116815760405162461bcd60e51b8152602060048201526024808201527f4552433732313a207472616e7366657220746f20746865207a65726f206164646044820152637265737360e01b6064820152608401610850565b61168c838383611cb1565b6116976000826113c1565b6001600160a01b03831660009081526003602052604081208054600192906116c090849061295e565b90915550506001600160a01b03821660009081526003602052604081208054600192906116ee908490612913565b909155505060008181526002602052604080822080546001600160a01b0319166001600160a01b0386811691821790925591518493918716917fddf252ad1be2c89b69c2b068fc378daa952ba7f163c4a11628f55a4df523b3ef91a4505050565b60606001600160a01b0382166014600061176a82600261293f565b611775906002612913565b67ffffffffffffffff81111561178d5761178d612a7a565b6040519080825280601f01601f1916602001820160405280156117b7576020820181803683370190505b509050600360fc1b816000815181106117d2576117d2612a64565b60200101906001600160f81b031916908160001a905350600f60fb1b8160018151811061180157611801612a64565b60200101906001600160f81b031916908160001a905350600061182583600261293f565b611830906001612913565b90505b60018111156118a8576f181899199a1a9b1b9c1cb0b131b232b360811b84600f166010811061186457611864612a64565b1a60f81b82828151811061187a5761187a612a64565b60200101906001600160f81b031916908160001a90535060049390931c926118a1816129a1565b9050611833565b50821561159c5760405162461bcd60e51b815260206004820181905260248201527f537472696e67733a20686578206c656e67746820696e73756666696369656e746044820152606401610850565b60608161191b5750506040805180820190915260018152600360fc1b602082015290565b8160005b8115611945578061192f816129f3565b915061193e9050600a8361292b565b915061191f565b60008167ffffffffffffffff81111561196057611960612a7a565b6040519080825280601f01601f19166020018201604052801561198a576020820181803683370190505b5090505b841561159c5761199f60018361295e565b91506119ac600a86612a0e565b6119b7906030612913565b60f81b8183815181106119cc576119cc612a64565b60200101906001600160f81b031916908160001a9053506119ee600a8661292b565b945061198e565b611a00848483611cbc565b6111b5838361142f565b6040517f19457468657265756d205369676e6564204d6573736167653a0a3332000000006020820152603c81018590526000908190605c0160408051601f1981840301815282825280516020918201206000845290830180835281905260ff8816918301919091526060820186905260808201859052915060019060a0016020604051602081039080840390855afa158015611aaa573d6000803e3d6000fd5b5050604051601f190151979650505050505050565b611aca8484846115a4565b611ad684848484611cef565b6111b55760405162461bcd60e51b815260040161085090612870565b6060611afd826113a4565b611b635760405162461bcd60e51b815260206004820152603160248201527f45524337323155524953746f726167653a2055524920717565727920666f72206044820152703737b732bc34b9ba32b73a103a37b5b2b760791b6064820152608401610850565b6000828152600a602052604081208054611b7c906129b8565b80601f0160208091040260200160405190810160405280929190818152602001828054611ba8906129b8565b8015611bf55780601f10611bca57610100808354040283529160200191611bf5565b820191906000526020600020905b815481529060010190602001808311611bd857829003601f168201915b505050505090506000611c1360408051602081019091526000815290565b9050805160001415611c26575092915050565b815115611c58578082604051602001611c4092919061277a565b60405160208183030381529060405292505050919050565b61159c84611df9565b60006001600160e01b031982166380ac58cd60e01b1480611c9257506001600160e01b03198216635b5e139f60e01b145b8061069f57506301ffc9a760e01b6001600160e01b031983161461069f565b610986838383611ed1565b611cc68383611f89565b611cd36000848484611cef565b6109865760405162461bcd60e51b815260040161085090612870565b60006001600160a01b0384163b15611df157604051630a85bd0160e11b81526001600160a01b0385169063150b7a0290611d33903390899088908890600401612820565b602060405180830381600087803b158015611d4d57600080fd5b505af1925050508015611d7d575060408051601f3d908101601f19168201909252611d7a9181019061263b565b60015b611dd7573d808015611dab576040519150601f19603f3d011682016040523d82523d6000602084013e611db0565b606091505b508051611dcf5760405162461bcd60e51b815260040161085090612870565b805181602001fd5b6001600160e01b031916630a85bd0160e11b14905061159c565b50600161159c565b6060611e04826113a4565b611e685760405162461bcd60e51b815260206004820152602f60248201527f4552433732314d657461646174613a2055524920717565727920666f72206e6f60448201526e3732bc34b9ba32b73a103a37b5b2b760891b6064820152608401610850565b6000611e7f60408051602081019091526000815290565b90506000815111611e9f5760405180602001604052806000815250611eca565b80611ea9846120c8565b604051602001611eba92919061277a565b6040516020818303038152906040525b9392505050565b6001600160a01b038316611f2c57611f2781600880546000838152600960205260408120829055600182018355919091527ff3f7a9fe364faab93b216da50a3214154f22a0a2b415b23a84c8169e8b636ee30155565b611f4f565b816001600160a01b0316836001600160a01b031614611f4f57611f4f83826121c6565b6001600160a01b038216611f665761098681612263565b826001600160a01b0316826001600160a01b031614610986576109868282612312565b6001600160a01b038216611fdf5760405162461bcd60e51b815260206004820181905260248201527f4552433732313a206d696e7420746f20746865207a65726f20616464726573736044820152606401610850565b611fe8816113a4565b156120355760405162461bcd60e51b815260206004820152601c60248201527f4552433732313a20746f6b656e20616c7265616479206d696e746564000000006044820152606401610850565b61204160008383611cb1565b6001600160a01b038216600090815260036020526040812080546001929061206a908490612913565b909155505060008181526002602052604080822080546001600160a01b0319166001600160a01b03861690811790915590518392907fddf252ad1be2c89b69c2b068fc378daa952ba7f163c4a11628f55a4df523b3ef908290a45050565b6060816120ec5750506040805180820190915260018152600360fc1b602082015290565b8160005b81156121165780612100816129f3565b915061210f9050600a8361292b565b91506120f0565b60008167ffffffffffffffff81111561213157612131612a7a565b6040519080825280601f01601f19166020018201604052801561215b576020820181803683370190505b5090505b841561159c5761217060018361295e565b915061217d600a86612a0e565b612188906030612913565b60f81b81838151811061219d5761219d612a64565b60200101906001600160f81b031916908160001a9053506121bf600a8661292b565b945061215f565b600060016121d384610fe4565b6121dd919061295e565b600083815260076020526040902054909150808214612230576001600160a01b03841660009081526006602090815260408083208584528252808320548484528184208190558352600790915290208190555b5060009182526007602090815260408084208490556001600160a01b039094168352600681528383209183525290812055565b6008546000906122759060019061295e565b6000838152600960205260408120546008805493945090928490811061229d5761229d612a64565b9060005260206000200154905080600883815481106122be576122be612a64565b60009182526020808320909101929092558281526009909152604080822084905585825281205560088054806122f6576122f6612a4e565b6001900381819060005260206000200160009055905550505050565b600061231d83610fe4565b6001600160a01b039093166000908152600660209081526040808320868452825280832085905593825260079052919091209190915550565b828054612362906129b8565b90600052602060002090601f01602090048101928261238457600085556123ca565b82601f1061239d57805160ff19168380011785556123ca565b828001600101855582156123ca579182015b828111156123ca5782518255916020019190600101906123af565b506123d69291506123da565b5090565b5b808211156123d657600081556001016123db565b600067ffffffffffffffff8084111561240a5761240a612a7a565b604051601f8501601f19908116603f0116810190828211818310171561243257612432612a7a565b8160405280935085815286868601111561244b57600080fd5b858560208301376000602087830101525050509392505050565b8035801515811461247557600080fd5b919050565b803560ff8116811461247557600080fd5b60006020828403121561249d57600080fd5b8135611eca81612a90565b600080604083850312156124bb57600080fd5b82356124c681612a90565b915060208301356124d681612a90565b809150509250929050565b6000806000606084860312156124f657600080fd5b833561250181612a90565b9250602084013561251181612a90565b929592945050506040919091013590565b6000806000806080858703121561253857600080fd5b843561254381612a90565b9350602085013561255381612a90565b925060408501359150606085013567ffffffffffffffff81111561257657600080fd5b8501601f8101871361258757600080fd5b612596878235602084016123ef565b91505092959194509250565b600080604083850312156125b557600080fd5b82356125c081612a90565b91506125ce60208401612465565b90509250929050565b600080604083850312156125ea57600080fd5b82356125f581612a90565b946020939093013593505050565b60006020828403121561261557600080fd5b611eca82612465565b60006020828403121561263057600080fd5b8135611eca81612aa5565b60006020828403121561264d57600080fd5b8151611eca81612aa5565b60006020828403121561266a57600080fd5b5035919050565b6000806040838503121561268457600080fd5b82359150602083013567ffffffffffffffff8111156126a257600080fd5b8301601f810185136126b357600080fd5b6126c2858235602084016123ef565b9150509250929050565b600080600080600060a086880312156126e457600080fd5b85359450602086013593506126fb6040870161247a565b94979396509394606081013594506080013592915050565b6000806000806080858703121561272957600080fd5b843593506127396020860161247a565b93969395505050506040820135916060013590565b60008151808452612766816020860160208601612975565b601f01601f19169290920160200192915050565b6000835161278c818460208801612975565b8351908301906127a0818360208801612975565b01949350505050565b7f68747470733a2f2f73746174696f6e30782e636f6d2f6170692f0000000000008152600083516127e181601a850160208801612975565b602f60f81b601a91840191820152835161280281601b840160208801612975565b64173539b7b760d91b601b9290910191820152602001949350505050565b6001600160a01b03858116825284166020820152604081018390526080606082018190526000906128539083018461274e565b9695505050505050565b602081526000611eca602083018461274e565b60208082526032908201527f4552433732313a207472616e7366657220746f206e6f6e20455243373231526560408201527131b2b4bb32b91034b6b83632b6b2b73a32b960711b606082015260800190565b60208082526031908201527f4552433732313a207472616e736665722063616c6c6572206973206e6f74206f6040820152701ddb995c881b9bdc88185c1c1c9bdd9959607a1b606082015260800190565b6000821982111561292657612926612a22565b500190565b60008261293a5761293a612a38565b500490565b600081600019048311821515161561295957612959612a22565b500290565b60008282101561297057612970612a22565b500390565b60005b83811015612990578181015183820152602001612978565b838111156111b55750506000910152565b6000816129b0576129b0612a22565b506000190190565b600181811c908216806129cc57607f821691505b602082108114156129ed57634e487b7160e01b600052602260045260246000fd5b50919050565b6000600019821415612a0757612a07612a22565b5060010190565b600082612a1d57612a1d612a38565b500690565b634e487b7160e01b600052601160045260246000fd5b634e487b7160e01b600052601260045260246000fd5b634e487b7160e01b600052603160045260246000fd5b634e487b7160e01b600052603260045260246000fd5b634e487b7160e01b600052604160045260246000fd5b6001600160a01b03811681146106e857600080fd5b6001600160e01b0319811681146106e857600080fdfea264697066735822122089fcb438debeb91f86f5632b847374817d7edb09b30c345105161bfbb729dc5c64736f6c63430008070033",
  "devdoc": {
    "kind": "dev",
    "methods": {
      "approve(address,uint256)": {
        "details": "See {IERC721-approve}."
      },
      "balanceOf(address)": {
        "details": "See {IERC721-balanceOf}."
      },
      "getApproved(uint256)": {
        "details": "See {IERC721-getApproved}."
      },
      "isApprovedForAll(address,address)": {
        "details": "See {IERC721-isApprovedForAll}."
      },
      "name()": {
        "details": "See {IERC721Metadata-name}."
      },
      "ownerOf(uint256)": {
        "details": "See {IERC721-ownerOf}."
      },
      "safeTransferFrom(address,address,uint256)": {
        "details": "See {IERC721-safeTransferFrom}."
      },
      "safeTransferFrom(address,address,uint256,bytes)": {
        "details": "See {IERC721-safeTransferFrom}."
      },
      "setApprovalForAll(address,bool)": {
        "details": "See {IERC721-setApprovalForAll}."
      },
      "symbol()": {
        "details": "See {IERC721Metadata-symbol}."
      },
      "tokenByIndex(uint256)": {
        "details": "See {IERC721Enumerable-tokenByIndex}."
      },
      "tokenOfOwnerByIndex(address,uint256)": {
        "details": "See {IERC721Enumerable-tokenOfOwnerByIndex}."
      },
      "totalSupply()": {
        "details": "See {IERC721Enumerable-totalSupply}."
      },
      "transferFrom(address,address,uint256)": {
        "details": "See {IERC721-transferFrom}."
      }
    },
    "version": 1
  },
  "userdoc": {
    "kind": "user",
    "methods": {},
    "version": 1
  },
  "storageLayout": {
    "storage": [
      {
        "astId": 25,
        "contract": "contracts/Station.sol:Station",
        "label": "_name",
        "offset": 0,
        "slot": "0",
        "type": "t_string_storage"
      },
      {
        "astId": 27,
        "contract": "contracts/Station.sol:Station",
        "label": "_symbol",
        "offset": 0,
        "slot": "1",
        "type": "t_string_storage"
      },
      {
        "astId": 31,
        "contract": "contracts/Station.sol:Station",
        "label": "_owners",
        "offset": 0,
        "slot": "2",
        "type": "t_mapping(t_uint256,t_address)"
      },
      {
        "astId": 35,
        "contract": "contracts/Station.sol:Station",
        "label": "_balances",
        "offset": 0,
        "slot": "3",
        "type": "t_mapping(t_address,t_uint256)"
      },
      {
        "astId": 39,
        "contract": "contracts/Station.sol:Station",
        "label": "_tokenApprovals",
        "offset": 0,
        "slot": "4",
        "type": "t_mapping(t_uint256,t_address)"
      },
      {
        "astId": 45,
        "contract": "contracts/Station.sol:Station",
        "label": "_operatorApprovals",
        "offset": 0,
        "slot": "5",
        "type": "t_mapping(t_address,t_mapping(t_address,t_bool))"
      },
      {
        "astId": 966,
        "contract": "contracts/Station.sol:Station",
        "label": "_ownedTokens",
        "offset": 0,
        "slot": "6",
        "type": "t_mapping(t_address,t_mapping(t_uint256,t_uint256))"
      },
      {
        "astId": 970,
        "contract": "contracts/Station.sol:Station",
        "label": "_ownedTokensIndex",
        "offset": 0,
        "slot": "7",
        "type": "t_mapping(t_uint256,t_uint256)"
      },
      {
        "astId": 973,
        "contract": "contracts/Station.sol:Station",
        "label": "_allTokens",
        "offset": 0,
        "slot": "8",
        "type": "t_array(t_uint256)dyn_storage"
      },
      {
        "astId": 977,
        "contract": "contracts/Station.sol:Station",
        "label": "_allTokensIndex",
        "offset": 0,
        "slot": "9",
        "type": "t_mapping(t_uint256,t_uint256)"
      },
      {
        "astId": 1302,
        "contract": "contracts/Station.sol:Station",
        "label": "_tokenURIs",
        "offset": 0,
        "slot": "10",
        "type": "t_mapping(t_uint256,t_string_storage)"
      },
      {
        "astId": 2053,
        "contract": "contracts/Station.sol:Station",
        "label": "owner",
        "offset": 0,
        "slot": "11",
        "type": "t_address"
      },
      {
        "astId": 2055,
        "contract": "contracts/Station.sol:Station",
        "label": "sold",
        "offset": 0,
        "slot": "12",
        "type": "t_uint256"
      },
      {
        "astId": 2057,
        "contract": "contracts/Station.sol:Station",
        "label": "teamMinted",
        "offset": 0,
        "slot": "13",
        "type": "t_uint256"
      },
      {
        "astId": 2060,
        "contract": "contracts/Station.sol:Station",
        "label": "saleIsActive",
        "offset": 0,
        "slot": "14",
        "type": "t_bool"
      },
      {
        "astId": 2062,
        "contract": "contracts/Station.sol:Station",
        "label": "stationLabs",
        "offset": 1,
        "slot": "14",
        "type": "t_address_payable"
      },
      {
        "astId": 2064,
        "contract": "contracts/Station.sol:Station",
        "label": "signer",
        "offset": 0,
        "slot": "15",
        "type": "t_address"
      },
      {
        "astId": 2068,
        "contract": "contracts/Station.sol:Station",
        "label": "bought",
        "offset": 0,
        "slot": "16",
        "type": "t_mapping(t_address,t_uint256)"
      },
      {
        "astId": 2072,
        "contract": "contracts/Station.sol:Station",
        "label": "claimed",
        "offset": 0,
        "slot": "17",
        "type": "t_mapping(t_address,t_bool)"
      }
    ],
    "types": {
      "t_address": {
        "encoding": "inplace",
        "label": "address",
        "numberOfBytes": "20"
      },
      "t_address_payable": {
        "encoding": "inplace",
        "label": "address payable",
        "numberOfBytes": "20"
      },
      "t_array(t_uint256)dyn_storage": {
        "base": "t_uint256",
        "encoding": "dynamic_array",
        "label": "uint256[]",
        "numberOfBytes": "32"
      },
      "t_bool": {
        "encoding": "inplace",
        "label": "bool",
        "numberOfBytes": "1"
      },
      "t_mapping(t_address,t_bool)": {
        "encoding": "mapping",
        "key": "t_address",
        "label": "mapping(address => bool)",
        "numberOfBytes": "32",
        "value": "t_bool"
      },
      "t_mapping(t_address,t_mapping(t_address,t_bool))": {
        "encoding": "mapping",
        "key": "t_address",
        "label": "mapping(address => mapping(address => bool))",
        "numberOfBytes": "32",
        "value": "t_mapping(t_address,t_bool)"
      },
      "t_mapping(t_address,t_mapping(t_uint256,t_uint256))": {
        "encoding": "mapping",
        "key": "t_address",
        "label": "mapping(address => mapping(uint256 => uint256))",
        "numberOfBytes": "32",
        "value": "t_mapping(t_uint256,t_uint256)"
      },
      "t_mapping(t_address,t_uint256)": {
        "encoding": "mapping",
        "key": "t_address",
        "label": "mapping(address => uint256)",
        "numberOfBytes": "32",
        "value": "t_uint256"
      },
      "t_mapping(t_uint256,t_address)": {
        "encoding": "mapping",
        "key": "t_uint256",
        "label": "mapping(uint256 => address)",
        "numberOfBytes": "32",
        "value": "t_address"
      },
      "t_mapping(t_uint256,t_string_storage)": {
        "encoding": "mapping",
        "key": "t_uint256",
        "label": "mapping(uint256 => string)",
        "numberOfBytes": "32",
        "value": "t_string_storage"
      },
      "t_mapping(t_uint256,t_uint256)": {
        "encoding": "mapping",
        "key": "t_uint256",
        "label": "mapping(uint256 => uint256)",
        "numberOfBytes": "32",
        "value": "t_uint256"
      },
      "t_string_storage": {
        "encoding": "bytes",
        "label": "string",
        "numberOfBytes": "32"
      },
      "t_uint256": {
        "encoding": "inplace",
        "label": "uint256",
        "numberOfBytes": "32"
      }
    }
  }
}