{
  "address": "0x892932597fCa94eDc5949460e3634f3B07f24fF3",
  "abi": [
    {
      "inputs": [
        {
          "internalType": "address",
          "name": "_operator",
          "type": "address"
        },
        {
          "internalType": "contract IERC20",
          "name": "_saleToken",
          "type": "address"
        },
        {
          "internalType": "contract IStation",
          "name": "_station",
          "type": "address"
        },
        {
          "internalType": "address",
          "name": "_stationLabs",
          "type": "address"
        }
      ],
      "stateMutability": "nonpayable",
      "type": "constructor"
    },
    {
      "anonymous": false,
      "inputs": [
        {
          "indexed": false,
          "internalType": "address",
          "name": "_newOperator",
          "type": "address"
        }
      ],
      "name": "SetOperator",
      "type": "event"
    },
    {
      "inputs": [],
      "name": "PRICE",
      "outputs": [
        {
          "internalType": "uint256",
          "name": "",
          "type": "uint256"
        }
      ],
      "stateMutability": "view",
      "type": "function"
    },
    {
      "inputs": [],
      "name": "SALE_LIMIT",
      "outputs": [
        {
          "internalType": "uint256",
          "name": "",
          "type": "uint256"
        }
      ],
      "stateMutability": "view",
      "type": "function"
    },
    {
      "inputs": [],
      "name": "TEAM_LIMIT",
      "outputs": [
        {
          "internalType": "uint256",
          "name": "",
          "type": "uint256"
        }
      ],
      "stateMutability": "view",
      "type": "function"
    },
    {
      "inputs": [
        {
          "internalType": "uint256",
          "name": "count",
          "type": "uint256"
        }
      ],
      "name": "buy",
      "outputs": [],
      "stateMutability": "nonpayable",
      "type": "function"
    },
    {
      "inputs": [
        {
          "internalType": "address",
          "name": "to",
          "type": "address"
        },
        {
          "internalType": "uint256",
          "name": "count",
          "type": "uint256"
        }
      ],
      "name": "mintTo",
      "outputs": [],
      "stateMutability": "nonpayable",
      "type": "function"
    },
    {
      "inputs": [],
      "name": "operator",
      "outputs": [
        {
          "internalType": "address",
          "name": "",
          "type": "address"
        }
      ],
      "stateMutability": "view",
      "type": "function"
    },
    {
      "inputs": [],
      "name": "saleIsActive",
      "outputs": [
        {
          "internalType": "bool",
          "name": "",
          "type": "bool"
        }
      ],
      "stateMutability": "view",
      "type": "function"
    },
    {
      "inputs": [],
      "name": "saleToken",
      "outputs": [
        {
          "internalType": "contract IERC20",
          "name": "",
          "type": "address"
        }
      ],
      "stateMutability": "view",
      "type": "function"
    },
    {
      "inputs": [
        {
          "internalType": "address",
          "name": "_newOperator",
          "type": "address"
        }
      ],
      "name": "setOperator",
      "outputs": [],
      "stateMutability": "nonpayable",
      "type": "function"
    },
    {
      "inputs": [
        {
          "internalType": "bool",
          "name": "status",
          "type": "bool"
        }
      ],
      "name": "setSaleStatus",
      "outputs": [],
      "stateMutability": "nonpayable",
      "type": "function"
    },
    {
      "inputs": [],
      "name": "sold",
      "outputs": [
        {
          "internalType": "uint256",
          "name": "",
          "type": "uint256"
        }
      ],
      "stateMutability": "view",
      "type": "function"
    },
    {
      "inputs": [],
      "name": "station",
      "outputs": [
        {
          "internalType": "contract IStation",
          "name": "",
          "type": "address"
        }
      ],
      "stateMutability": "view",
      "type": "function"
    },
    {
      "inputs": [],
      "name": "stationLabs",
      "outputs": [
        {
          "internalType": "address",
          "name": "",
          "type": "address"
        }
      ],
      "stateMutability": "view",
      "type": "function"
    },
    {
      "inputs": [],
      "name": "teamMinted",
      "outputs": [
        {
          "internalType": "uint256",
          "name": "",
          "type": "uint256"
        }
      ],
      "stateMutability": "view",
      "type": "function"
    }
  ],
  "transactionHash": "0x743a743054b0c5d582c74a384b8c6102aa1b78059027434467ca591353f4a9ae",
  "args": [
    "0xC4D37babfE60b208dD695155Cc80C981E6d38E4a",
    "0xAC0d1F1353ab6f6E15F47480A24ebF7fee33F76A",
    "0x5Daa5D3D7C0996616cFb512058e0ac75659794Eb",
    "0x0000000000000000000000000000000000000001"
  ],
  "solcInputHash": "3a58d91d5abab58506725c131f6dc113",
  "bytecode": "0x608060405234801561001057600080fd5b5060405161102938038061102983398101604081905261002f91610090565b600080546001600160a01b039586166001600160a01b03199182161790915560018054948616948216949094179093556004805492851661010002610100600160a81b03199093169290921790915560058054919093169116179055610106565b600080600080608085870312156100a5578384fd5b84516100b0816100ee565b60208601519094506100c1816100ee565b60408601519093506100d2816100ee565b60608601519092506100e3816100ee565b939692955090935050565b6001600160a01b038116811461010357600080fd5b50565b610f14806101156000396000f3fe608060405234801561001057600080fd5b50600436106100ea5760003560e01c8063b3ab15fb1161008c578063d96a094a11610066578063d96a094a146101bd578063e8b5498d146101d0578063e985e367146101d9578063eb8d2444146101ec57600080fd5b8063b3ab15fb1461017f578063d6a1524014610192578063d897833e146101aa57600080fd5b8063368bf74e116100c8578063368bf74e1461013f578063449a52f814610148578063570ca7351461015d5780638d859f3e1461017057600080fd5b806302c7e7af146100ef5780630804fa451461010b578063212e8f6714610136575b600080fd5b6100f860025481565b6040519081526020015b60405180910390f35b60055461011e906001600160a01b031681565b6040516001600160a01b039091168152602001610102565b6100f861232881565b6100f86103e881565b61015b610156366004610c66565b610209565b005b60005461011e906001600160a01b031681565b6100f867011c37937e08000081565b61015b61018d366004610c45565b610429565b60045461011e9061010090046001600160a01b031681565b61015b6101b8366004610c8f565b610494565b61015b6101cb366004610cc7565b6104be565b6100f860035481565b60015461011e906001600160a01b031681565b6004546101f99060ff1681565b6040519015158152602001610102565b6000546001600160a01b0316331461022057600080fd5b60035461022f906103e8610e14565b81111561023b57600080fd5b6000811161024857600080fd5b60005b8181101561040d576004546000906102709061010090046001600160a01b0316610919565b6102fe600460019054906101000a90046001600160a01b03166001600160a01b03166318160ddd6040518163ffffffff1660e01b815260040160206040518083038186803b1580156102c157600080fd5b505afa1580156102d5573d6000803e3d6000fd5b505050506040513d601f19601f820116820180604052508101906102f99190610cdf565b610b0f565b60405160200161030f929190610cf7565b60408051808303601f19018152828252600480546318160ddd60e01b855292519194506101009092046001600160a01b03169263d2b04fd692889285926318160ddd9280820192602092909190829003018186803b15801561037057600080fd5b505afa158015610384573d6000803e3d6000fd5b505050506040513d601f19601f820116820180604052508101906103a89190610cdf565b846040518463ffffffff1660e01b81526004016103c793929190610d6e565b600060405180830381600087803b1580156103e157600080fd5b505af11580156103f5573d6000803e3d6000fd5b5050505050808061040590610e72565b91505061024b565b5080600360008282546104209190610dc9565b90915550505050565b6000546001600160a01b0316331461044057600080fd5b600080546001600160a01b0319166001600160a01b0383169081179091556040519081527fdbebfba65bd6398fb722063efc10c99f624f9cd8ba657201056af918a676d5ee9060200160405180910390a150565b6000546001600160a01b031633146104ab57600080fd5b6004805460ff1916911515919091179055565b600081116105135760405162461bcd60e51b815260206004820152601f60248201527f53706163657368697020636f756e742063616e6e6f74206265205a65726f210060448201526064015b60405180910390fd5b60025461052290612328610e14565b8111156105665760405162461bcd60e51b815260206004820152601260248201527153616c65206f7574206f662073746f636b2160701b604482015260640161050a565b60045460ff166105ae5760405162461bcd60e51b815260206004820152601360248201527253616c65206973206e6f74206163746976652160681b604482015260640161050a565b60006105c267011c37937e08000083610df5565b6001546005546040516370a0823160e01b81526001600160a01b0391821660048201529293506000929116906370a082319060240160206040518083038186803b15801561060f57600080fd5b505afa158015610623573d6000803e3d6000fd5b505050506040513d601f19601f820116820180604052508101906106479190610cdf565b6001546005546040516323b872dd60e01b81523360048201526001600160a01b0391821660248201526044810186905292935016906323b872dd90606401602060405180830381600087803b15801561069f57600080fd5b505af11580156106b3573d6000803e3d6000fd5b505050506040513d601f19601f820116820180604052508101906106d79190610cab565b506001546005546040516370a0823160e01b81526001600160a01b03918216600482015260009291909116906370a082319060240160206040518083038186803b15801561072457600080fd5b505afa158015610738573d6000803e3d6000fd5b505050506040513d601f19601f8201168201806040525081019061075c9190610cdf565b9050826107698383610e14565b1461077357600080fd5b60005b848110156108fb5760045460009061079b9061010090046001600160a01b0316610919565b6107ec600460019054906101000a90046001600160a01b03166001600160a01b03166318160ddd6040518163ffffffff1660e01b815260040160206040518083038186803b1580156102c157600080fd5b6040516020016107fd929190610cf7565b60408051808303601f19018152828252600480546318160ddd60e01b855292519194506101009092046001600160a01b03169263d2b04fd692339285926318160ddd9280820192602092909190829003018186803b15801561085e57600080fd5b505afa158015610872573d6000803e3d6000fd5b505050506040513d601f19601f820116820180604052508101906108969190610cdf565b846040518463ffffffff1660e01b81526004016108b593929190610d6e565b600060405180830381600087803b1580156108cf57600080fd5b505af11580156108e3573d6000803e3d6000fd5b505050505080806108f390610e72565b915050610776565b50836002600082825461090e9190610dc9565b909155505050505050565b60606001600160a01b03821660146000610934826002610df5565b61093f906002610dc9565b67ffffffffffffffff81111561096557634e487b7160e01b600052604160045260246000fd5b6040519080825280601f01601f19166020018201604052801561098f576020820181803683370190505b509050600360fc1b816000815181106109b857634e487b7160e01b600052603260045260246000fd5b60200101906001600160f81b031916908160001a905350600f60fb1b816001815181106109f557634e487b7160e01b600052603260045260246000fd5b60200101906001600160f81b031916908160001a9053506000610a19836002610df5565b610a24906001610dc9565b90505b6001811115610ab8576f181899199a1a9b1b9c1cb0b131b232b360811b84600f1660108110610a6657634e487b7160e01b600052603260045260246000fd5b1a60f81b828281518110610a8a57634e487b7160e01b600052603260045260246000fd5b60200101906001600160f81b031916908160001a90535060049390931c92610ab181610e5b565b9050610a27565b508215610b075760405162461bcd60e51b815260206004820181905260248201527f537472696e67733a20686578206c656e67746820696e73756666696369656e74604482015260640161050a565b949350505050565b606081610b335750506040805180820190915260018152600360fc1b602082015290565b8160005b8115610b5d5780610b4781610e72565b9150610b569050600a83610de1565b9150610b37565b60008167ffffffffffffffff811115610b8657634e487b7160e01b600052604160045260246000fd5b6040519080825280601f01601f191660200182016040528015610bb0576020820181803683370190505b5090505b8415610b0757610bc5600183610e14565b9150610bd2600a86610e8d565b610bdd906030610dc9565b60f81b818381518110610c0057634e487b7160e01b600052603260045260246000fd5b60200101906001600160f81b031916908160001a905350610c22600a86610de1565b9450610bb4565b80356001600160a01b0381168114610c4057600080fd5b919050565b600060208284031215610c56578081fd5b610c5f82610c29565b9392505050565b60008060408385031215610c78578081fd5b610c8183610c29565b946020939093013593505050565b600060208284031215610ca0578081fd5b8135610c5f81610ecd565b600060208284031215610cbc578081fd5b8151610c5f81610ecd565b600060208284031215610cd8578081fd5b5035919050565b600060208284031215610cf0578081fd5b5051919050565b7f68747470733a2f2f73746174696f6e30782e636f6d2f6170692f000000000000815260008351610d2f81601a850160208801610e2b565b602f60f81b601a918401918201528351610d5081601b840160208801610e2b565b64173539b7b760d91b601b9290910191820152602001949350505050565b60018060a01b03841681528260208201526080604082015260008251806080840152610da18160a0850160208701610e2b565b601f01601f1916820182810360a09081016060909401939093529182015260c0019392505050565b60008219821115610ddc57610ddc610ea1565b500190565b600082610df057610df0610eb7565b500490565b6000816000190483118215151615610e0f57610e0f610ea1565b500290565b600082821015610e2657610e26610ea1565b500390565b60005b83811015610e46578181015183820152602001610e2e565b83811115610e55576000848401525b50505050565b600081610e6a57610e6a610ea1565b506000190190565b6000600019821415610e8657610e86610ea1565b5060010190565b600082610e9c57610e9c610eb7565b500690565b634e487b7160e01b600052601160045260246000fd5b634e487b7160e01b600052601260045260246000fd5b8015158114610edb57600080fd5b5056fea264697066735822122025c7b9a6584939725d3286feb6fd2f1796874aa955e564deafad4548eaf4720f64736f6c63430008040033",
  "devdoc": {
    "kind": "dev",
    "methods": {},
    "version": 1
  },
  "userdoc": {
    "kind": "user",
    "methods": {},
    "version": 1
  },
  "storageLayout": {
    "storage": [
      {
        "astId": 51,
        "contract": "contracts/ManufacturerV1.sol:ManufacturerV1",
        "label": "operator",
        "offset": 0,
        "slot": "0",
        "type": "t_address"
      },
      {
        "astId": 54,
        "contract": "contracts/ManufacturerV1.sol:ManufacturerV1",
        "label": "saleToken",
        "offset": 0,
        "slot": "1",
        "type": "t_contract(IERC20)20"
      },
      {
        "astId": 56,
        "contract": "contracts/ManufacturerV1.sol:ManufacturerV1",
        "label": "sold",
        "offset": 0,
        "slot": "2",
        "type": "t_uint256"
      },
      {
        "astId": 58,
        "contract": "contracts/ManufacturerV1.sol:ManufacturerV1",
        "label": "teamMinted",
        "offset": 0,
        "slot": "3",
        "type": "t_uint256"
      },
      {
        "astId": 60,
        "contract": "contracts/ManufacturerV1.sol:ManufacturerV1",
        "label": "saleIsActive",
        "offset": 0,
        "slot": "4",
        "type": "t_bool"
      },
      {
        "astId": 63,
        "contract": "contracts/ManufacturerV1.sol:ManufacturerV1",
        "label": "station",
        "offset": 1,
        "slot": "4",
        "type": "t_contract(IStation)37"
      },
      {
        "astId": 65,
        "contract": "contracts/ManufacturerV1.sol:ManufacturerV1",
        "label": "stationLabs",
        "offset": 0,
        "slot": "5",
        "type": "t_address"
      }
    ],
    "types": {
      "t_address": {
        "encoding": "inplace",
        "label": "address",
        "numberOfBytes": "20"
      },
      "t_bool": {
        "encoding": "inplace",
        "label": "bool",
        "numberOfBytes": "1"
      },
      "t_contract(IERC20)20": {
        "encoding": "inplace",
        "label": "contract IERC20",
        "numberOfBytes": "20"
      },
      "t_contract(IStation)37": {
        "encoding": "inplace",
        "label": "contract IStation",
        "numberOfBytes": "20"
      },
      "t_uint256": {
        "encoding": "inplace",
        "label": "uint256",
        "numberOfBytes": "32"
      }
    }
  }
}