{
  "address": "0x303Ab76bE9db5525aB5a5801e5B3756BC60e8477",
  "abi": [
    {
      "inputs": [
        {
          "internalType": "address",
          "name": "",
          "type": "address"
        },
        {
          "internalType": "uint256",
          "name": "",
          "type": "uint256"
        }
      ],
      "name": "onDistribute",
      "outputs": [
        {
          "internalType": "bool",
          "name": "",
          "type": "bool"
        }
      ],
      "stateMutability": "nonpayable",
      "type": "function"
    },
    {
      "inputs": [
        {
          "internalType": "address",
          "name": "",
          "type": "address"
        },
        {
          "internalType": "address",
          "name": "",
          "type": "address"
        },
        {
          "internalType": "address",
          "name": "",
          "type": "address"
        },
        {
          "internalType": "uint256",
          "name": "",
          "type": "uint256"
        }
      ],
      "name": "onSeize",
      "outputs": [
        {
          "internalType": "bool",
          "name": "",
          "type": "bool"
        }
      ],
      "stateMutability": "nonpayable",
      "type": "function"
    },
    {
      "inputs": [
        {
          "internalType": "address",
          "name": "",
          "type": "address"
        },
        {
          "internalType": "address",
          "name": "",
          "type": "address"
        },
        {
          "internalType": "address",
          "name": "",
          "type": "address"
        },
        {
          "internalType": "uint256",
          "name": "",
          "type": "uint256"
        }
      ],
      "name": "onTransfer",
      "outputs": [
        {
          "internalType": "bool",
          "name": "",
          "type": "bool"
        }
      ],
      "stateMutability": "nonpayable",
      "type": "function"
    }
  ],
  "transactionHash": "0xd2ab12350bf71c2b7bb76dfea7b1395978b535c5a772201655c9d510801b5444",
  "args": [],
  "solcInputHash": "4dde0824a6a40d0e45976a5fd176e3d7",
  "bytecode": "0x608060405234801561001057600080fd5b50610165806100206000396000f3fe608060405234801561001057600080fd5b50600436106100415760003560e01c80630987df03146100465780631396c62814610072578063d14b763a1461008a575b600080fd5b61005e6100543660046100bc565b6001949350505050565b604051901515815260200160405180910390f35b61005e6100803660046100bc565b6000949350505050565b61005e610098366004610106565b600092915050565b80356001600160a01b03811681146100b757600080fd5b919050565b600080600080608085870312156100d1578384fd5b6100da856100a0565b93506100e8602086016100a0565b92506100f6604086016100a0565b9396929550929360600135925050565b60008060408385031215610118578182fd5b610121836100a0565b94602093909301359350505056fea2646970667358221220aff36f4346336c50c70a723b69ff7be8f30c8e59f48fa75ce49dbc1f27041c4a64736f6c63430008040033",
  "devdoc": {
    "kind": "dev",
    "methods": {},
    "version": 1
  },
  "userdoc": {
    "kind": "user",
    "methods": {},
    "version": 1
  },
  "storageLayout": {
    "storage": [
      {
        "astId": 3,
        "contract": "contracts/StationHooks.sol:StationHooks",
        "label": "shh",
        "offset": 0,
        "slot": "0",
        "type": "t_bool"
      }
    ],
    "types": {
      "t_bool": {
        "encoding": "inplace",
        "label": "bool",
        "numberOfBytes": "1"
      }
    }
  }
}