{
  "address": "0x5Daa5D3D7C0996616cFb512058e0ac75659794Eb",
  "abi": [
    {
      "inputs": [
        {
          "internalType": "string",
          "name": "_name",
          "type": "string"
        },
        {
          "internalType": "string",
          "name": "_symbol",
          "type": "string"
        },
        {
          "internalType": "contract IRegistry",
          "name": "_registry",
          "type": "address"
        }
      ],
      "stateMutability": "nonpayable",
      "type": "constructor"
    },
    {
      "anonymous": false,
      "inputs": [
        {
          "indexed": true,
          "internalType": "address",
          "name": "owner",
          "type": "address"
        },
        {
          "indexed": true,
          "internalType": "address",
          "name": "approved",
          "type": "address"
        },
        {
          "indexed": true,
          "internalType": "uint256",
          "name": "tokenId",
          "type": "uint256"
        }
      ],
      "name": "Approval",
      "type": "event"
    },
    {
      "anonymous": false,
      "inputs": [
        {
          "indexed": true,
          "internalType": "address",
          "name": "owner",
          "type": "address"
        },
        {
          "indexed": true,
          "internalType": "address",
          "name": "operator",
          "type": "address"
        },
        {
          "indexed": false,
          "internalType": "bool",
          "name": "approved",
          "type": "bool"
        }
      ],
      "name": "ApprovalForAll",
      "type": "event"
    },
    {
      "anonymous": false,
      "inputs": [
        {
          "indexed": true,
          "internalType": "address",
          "name": "to",
          "type": "address"
        },
        {
          "indexed": false,
          "internalType": "uint256",
          "name": "weiAmount",
          "type": "uint256"
        }
      ],
      "name": "DividendWithdrawn",
      "type": "event"
    },
    {
      "anonymous": false,
      "inputs": [
        {
          "indexed": true,
          "internalType": "address",
          "name": "from",
          "type": "address"
        },
        {
          "indexed": false,
          "internalType": "uint256",
          "name": "weiAmount",
          "type": "uint256"
        }
      ],
      "name": "DividendsDistributed",
      "type": "event"
    },
    {
      "anonymous": false,
      "inputs": [
        {
          "indexed": true,
          "internalType": "address",
          "name": "from",
          "type": "address"
        },
        {
          "indexed": true,
          "internalType": "address",
          "name": "to",
          "type": "address"
        },
        {
          "indexed": true,
          "internalType": "uint256",
          "name": "tokenId",
          "type": "uint256"
        }
      ],
      "name": "Transfer",
      "type": "event"
    },
    {
      "inputs": [
        {
          "internalType": "address",
          "name": "_owner",
          "type": "address"
        }
      ],
      "name": "accumulativeDividendOf",
      "outputs": [
        {
          "internalType": "uint256",
          "name": "",
          "type": "uint256"
        }
      ],
      "stateMutability": "view",
      "type": "function"
    },
    {
      "inputs": [
        {
          "internalType": "address",
          "name": "to",
          "type": "address"
        },
        {
          "internalType": "uint256",
          "name": "tokenId",
          "type": "uint256"
        }
      ],
      "name": "approve",
      "outputs": [],
      "stateMutability": "nonpayable",
      "type": "function"
    },
    {
      "inputs": [
        {
          "internalType": "address",
          "name": "owner",
          "type": "address"
        }
      ],
      "name": "balanceOf",
      "outputs": [
        {
          "internalType": "uint256",
          "name": "",
          "type": "uint256"
        }
      ],
      "stateMutability": "view",
      "type": "function"
    },
    {
      "inputs": [
        {
          "internalType": "uint256",
          "name": "amount",
          "type": "uint256"
        }
      ],
      "name": "distributeDividends",
      "outputs": [],
      "stateMutability": "nonpayable",
      "type": "function"
    },
    {
      "inputs": [
        {
          "internalType": "address",
          "name": "_owner",
          "type": "address"
        }
      ],
      "name": "dividendOf",
      "outputs": [
        {
          "internalType": "uint256",
          "name": "",
          "type": "uint256"
        }
      ],
      "stateMutability": "view",
      "type": "function"
    },
    {
      "inputs": [
        {
          "internalType": "uint256",
          "name": "tokenId",
          "type": "uint256"
        }
      ],
      "name": "getApproved",
      "outputs": [
        {
          "internalType": "address",
          "name": "",
          "type": "address"
        }
      ],
      "stateMutability": "view",
      "type": "function"
    },
    {
      "inputs": [
        {
          "internalType": "address",
          "name": "owner",
          "type": "address"
        },
        {
          "internalType": "address",
          "name": "operator",
          "type": "address"
        }
      ],
      "name": "isApprovedForAll",
      "outputs": [
        {
          "internalType": "bool",
          "name": "",
          "type": "bool"
        }
      ],
      "stateMutability": "view",
      "type": "function"
    },
    {
      "inputs": [
        {
          "internalType": "address",
          "name": "to",
          "type": "address"
        },
        {
          "internalType": "uint256",
          "name": "tokenId",
          "type": "uint256"
        },
        {
          "internalType": "string",
          "name": "_tokenURI",
          "type": "string"
        },
        {
          "internalType": "bytes",
          "name": "_data",
          "type": "bytes"
        }
      ],
      "name": "mint",
      "outputs": [],
      "stateMutability": "nonpayable",
      "type": "function"
    },
    {
      "inputs": [],
      "name": "name",
      "outputs": [
        {
          "internalType": "string",
          "name": "",
          "type": "string"
        }
      ],
      "stateMutability": "view",
      "type": "function"
    },
    {
      "inputs": [
        {
          "internalType": "uint256",
          "name": "tokenId",
          "type": "uint256"
        }
      ],
      "name": "ownerOf",
      "outputs": [
        {
          "internalType": "address",
          "name": "",
          "type": "address"
        }
      ],
      "stateMutability": "view",
      "type": "function"
    },
    {
      "inputs": [],
      "name": "registry",
      "outputs": [
        {
          "internalType": "contract IRegistry",
          "name": "",
          "type": "address"
        }
      ],
      "stateMutability": "view",
      "type": "function"
    },
    {
      "inputs": [
        {
          "internalType": "address",
          "name": "from",
          "type": "address"
        },
        {
          "internalType": "address",
          "name": "to",
          "type": "address"
        },
        {
          "internalType": "uint256",
          "name": "tokenId",
          "type": "uint256"
        }
      ],
      "name": "safeTransferFrom",
      "outputs": [],
      "stateMutability": "nonpayable",
      "type": "function"
    },
    {
      "inputs": [
        {
          "internalType": "address",
          "name": "from",
          "type": "address"
        },
        {
          "internalType": "address",
          "name": "to",
          "type": "address"
        },
        {
          "internalType": "uint256",
          "name": "tokenId",
          "type": "uint256"
        },
        {
          "internalType": "bytes",
          "name": "_data",
          "type": "bytes"
        }
      ],
      "name": "safeTransferFrom",
      "outputs": [],
      "stateMutability": "nonpayable",
      "type": "function"
    },
    {
      "inputs": [
        {
          "internalType": "address",
          "name": "from",
          "type": "address"
        },
        {
          "internalType": "address",
          "name": "to",
          "type": "address"
        },
        {
          "internalType": "uint256",
          "name": "tokenId",
          "type": "uint256"
        }
      ],
      "name": "seize",
      "outputs": [],
      "stateMutability": "nonpayable",
      "type": "function"
    },
    {
      "inputs": [
        {
          "internalType": "address",
          "name": "operator",
          "type": "address"
        },
        {
          "internalType": "bool",
          "name": "approved",
          "type": "bool"
        }
      ],
      "name": "setApprovalForAll",
      "outputs": [],
      "stateMutability": "nonpayable",
      "type": "function"
    },
    {
      "inputs": [
        {
          "internalType": "uint256",
          "name": "tokenId",
          "type": "uint256"
        },
        {
          "internalType": "string",
          "name": "_tokenURI",
          "type": "string"
        }
      ],
      "name": "setTokenURI",
      "outputs": [],
      "stateMutability": "nonpayable",
      "type": "function"
    },
    {
      "inputs": [
        {
          "internalType": "bytes4",
          "name": "interfaceId",
          "type": "bytes4"
        }
      ],
      "name": "supportsInterface",
      "outputs": [
        {
          "internalType": "bool",
          "name": "",
          "type": "bool"
        }
      ],
      "stateMutability": "view",
      "type": "function"
    },
    {
      "inputs": [],
      "name": "symbol",
      "outputs": [
        {
          "internalType": "string",
          "name": "",
          "type": "string"
        }
      ],
      "stateMutability": "view",
      "type": "function"
    },
    {
      "inputs": [
        {
          "internalType": "uint256",
          "name": "index",
          "type": "uint256"
        }
      ],
      "name": "tokenByIndex",
      "outputs": [
        {
          "internalType": "uint256",
          "name": "",
          "type": "uint256"
        }
      ],
      "stateMutability": "view",
      "type": "function"
    },
    {
      "inputs": [
        {
          "internalType": "address",
          "name": "owner",
          "type": "address"
        },
        {
          "internalType": "uint256",
          "name": "index",
          "type": "uint256"
        }
      ],
      "name": "tokenOfOwnerByIndex",
      "outputs": [
        {
          "internalType": "uint256",
          "name": "",
          "type": "uint256"
        }
      ],
      "stateMutability": "view",
      "type": "function"
    },
    {
      "inputs": [
        {
          "internalType": "uint256",
          "name": "tokenId",
          "type": "uint256"
        }
      ],
      "name": "tokenURI",
      "outputs": [
        {
          "internalType": "string",
          "name": "",
          "type": "string"
        }
      ],
      "stateMutability": "view",
      "type": "function"
    },
    {
      "inputs": [],
      "name": "totalSupply",
      "outputs": [
        {
          "internalType": "uint256",
          "name": "",
          "type": "uint256"
        }
      ],
      "stateMutability": "view",
      "type": "function"
    },
    {
      "inputs": [
        {
          "internalType": "address",
          "name": "from",
          "type": "address"
        },
        {
          "internalType": "address",
          "name": "to",
          "type": "address"
        },
        {
          "internalType": "uint256",
          "name": "tokenId",
          "type": "uint256"
        }
      ],
      "name": "transferFrom",
      "outputs": [],
      "stateMutability": "nonpayable",
      "type": "function"
    },
    {
      "inputs": [],
      "name": "withdrawDividend",
      "outputs": [],
      "stateMutability": "nonpayable",
      "type": "function"
    },
    {
      "inputs": [
        {
          "internalType": "address",
          "name": "_owner",
          "type": "address"
        }
      ],
      "name": "withdrawnDividendOf",
      "outputs": [
        {
          "internalType": "uint256",
          "name": "",
          "type": "uint256"
        }
      ],
      "stateMutability": "view",
      "type": "function"
    }
  ],
  "transactionHash": "0x338248c545ebff86fd70eab6da947ad21d7d1661649052cc37c8dd809545bdd1",
  "args": [
    "Callisto-6",
    "CAL6",
    "0xfc9f1F923f697A993f182170D00Fa74Ea161cACD"
  ],
  "solcInputHash": "f7576c597a082c9140d04c3e9a483c5b",
  "bytecode": "0x60806040523480156200001157600080fd5b5060405162002d9138038062002d918339810160408190526200003491620001e9565b8251839083906200004d90600090602085019062000090565b5080516200006390600190602084019062000090565b5050600b80546001600160a01b0319166001600160a01b03939093169290921790915550620002c5915050565b8280546200009e9062000272565b90600052602060002090601f016020900481019282620000c257600085556200010d565b82601f10620000dd57805160ff19168380011785556200010d565b828001600101855582156200010d579182015b828111156200010d578251825591602001919060010190620000f0565b506200011b9291506200011f565b5090565b5b808211156200011b576000815560010162000120565b600082601f83011262000147578081fd5b81516001600160401b0380821115620001645762000164620002af565b604051601f8301601f19908116603f011681019082821181831017156200018f576200018f620002af565b81604052838152602092508683858801011115620001ab578485fd5b8491505b83821015620001ce5785820183015181830184015290820190620001af565b83821115620001df57848385830101525b9695505050505050565b600080600060608486031215620001fe578283fd5b83516001600160401b038082111562000215578485fd5b620002238783880162000136565b9450602086015191508082111562000239578384fd5b50620002488682870162000136565b604086015190935090506001600160a01b038116811462000267578182fd5b809150509250925092565b600181811c908216806200028757607f821691505b60208210811415620002a957634e487b7160e01b600052602260045260246000fd5b50919050565b634e487b7160e01b600052604160045260246000fd5b612abc80620002d56000396000f3fe608060405234801561001057600080fd5b50600436106101735760003560e01c80636352211e116100de578063a22cb46511610097578063b88d4fde11610071578063b88d4fde14610337578063c87b56dd1461034a578063d2b04fd61461035d578063e985e9c51461037057600080fd5b8063a22cb465146102e8578063aafd847a146102fb578063b2a02ff11461032457600080fd5b80636352211e1461028c5780636a4740021461029f57806370a08231146102a75780637b103999146102ba57806391b89fba146102cd57806395d89b41146102e057600080fd5b806323b872dd1161013057806323b872dd1461021a57806327ce01471461022d5780632f745c59146102405780633243c7911461025357806342842e0e146102665780634f6ccce71461027957600080fd5b806301ffc9a71461017857806306fdde03146101a0578063081812fc146101b5578063095ea7b3146101e0578063162094c4146101f557806318160ddd14610208575b600080fd5b61018b61018636600461266b565b6103ac565b60405190151581526020015b60405180910390f35b6101a86103bd565b60405161019791906127b4565b6101c86101c33660046126a3565b61044f565b6040516001600160a01b039091168152602001610197565b6101f36101ee3660046125b3565b6104dc565b005b6101f36102033660046126bb565b6105f2565b6008545b604051908152602001610197565b6101f36102283660046124dc565b6106f1565b61020c61023b36600461246c565b610722565b61020c61024e3660046125b3565b61077b565b6101f36102613660046126a3565b610811565b6101f36102743660046124dc565b610a73565b61020c6102873660046126a3565b610a8e565b6101c861029a3660046126a3565b610b2f565b6101f3610ba6565b61020c6102b536600461246c565b610ced565b600b546101c8906001600160a01b031681565b61020c6102db36600461246c565b610d74565b6101a8610d7f565b6101f36102f6366004612586565b610d8e565b61020c61030936600461246c565b6001600160a01b03166000908152600e602052604090205490565b6101f36103323660046124dc565b610e53565b6101f361034536600461251c565b610f80565b6101a86103583660046126a3565b610fb2565b6101f361036b3660046125de565b610fbd565b61018b61037e3660046124a4565b6001600160a01b03918216600090815260056020908152604080832093909416825291909152205460ff1690565b60006103b7826110ce565b92915050565b6060600080546103cc9061299e565b80601f01602080910402602001604051908101604052809291908181526020018280546103f89061299e565b80156104455780601f1061041a57610100808354040283529160200191610445565b820191906000526020600020905b81548152906001019060200180831161042857829003601f168201915b5050505050905090565b600061045a826110f3565b6104c05760405162461bcd60e51b815260206004820152602c60248201527f4552433732313a20617070726f76656420717565727920666f72206e6f6e657860448201526b34b9ba32b73a103a37b5b2b760a11b60648201526084015b60405180910390fd5b506000908152600460205260409020546001600160a01b031690565b60006104e782610b2f565b9050806001600160a01b0316836001600160a01b031614156105555760405162461bcd60e51b815260206004820152602160248201527f4552433732313a20617070726f76616c20746f2063757272656e74206f776e656044820152603960f91b60648201526084016104b7565b336001600160a01b03821614806105715750610571813361037e565b6105e35760405162461bcd60e51b815260206004820152603860248201527f4552433732313a20617070726f76652063616c6c6572206973206e6f74206f7760448201527f6e6572206e6f7220617070726f76656420666f7220616c6c000000000000000060648201526084016104b7565b6105ed8383611110565b505050565b600b5460405163e09c0c4760e01b815260206004820152600e60248201526d6d616e756661637475726572563160901b60448201526000916001600160a01b03169063e09c0c479060640160206040518083038186803b15801561065557600080fd5b505afa158015610669573d6000803e3d6000fd5b505050506040513d601f19601f8201168201806040525081019061068d9190612488565b9050336001600160a01b038216146106e75760405162461bcd60e51b815260206004820152601a60248201527f446f206e6f742063616c6c20746869732066756e6374696f6e2100000000000060448201526064016104b7565b6105ed838361117e565b6106fb3382611209565b6107175760405162461bcd60e51b81526004016104b79061283f565b6105ed8383836112f3565b6001600160a01b0381166000908152600d6020526040812054600160801b906107719061076c9061076661076161075888610ced565b600c549061149e565b6114b1565b906114c1565b6114ff565b6103b791906128e9565b600061078683610ced565b82106107e85760405162461bcd60e51b815260206004820152602b60248201527f455243373231456e756d657261626c653a206f776e657220696e646578206f7560448201526a74206f6620626f756e647360a81b60648201526084016104b7565b506001600160a01b03919091166000908152600660209081526040808320938352929052205490565b600061081c60085490565b1161082657600080fd5b6000811161083357600080fd5b600b5460405163e09c0c4760e01b81526000916001600160a01b03169063e09c0c4790610882906004016020808252600b908201526a3932bbb0b9322a37b5b2b760a91b604082015260600190565b60206040518083038186803b15801561089a57600080fd5b505afa1580156108ae573d6000803e3d6000fd5b505050506040513d601f19601f820116820180604052508101906108d29190612488565b600b5460405163e09c0c4760e01b81529192506000916001600160a01b039091169063e09c0c479061090690600401612819565b60206040518083038186803b15801561091e57600080fd5b505afa158015610932573d6000803e3d6000fd5b505050506040513d601f19601f820116820180604052508101906109569190612488565b90506001600160a01b03821661096b57600080fd5b6040516368a5bb1d60e11b8152336004820152602481018490526001600160a01b0382169063d14b763a90604401602060405180830381600087803b1580156109b357600080fd5b505af11580156109c7573d6000803e3d6000fd5b505050506040513d601f19601f820116820180604052508101906109eb919061264f565b6109f457600080fd5b610a21610a0060085490565b610a0e85600160801b61149e565b610a1891906128e9565b600c5490611512565b600c55610a396001600160a01b03831633308661151e565b60405183815233907fa493a9229478c3fcd73f66d2cdeb7f94fd0f341da924d1054236d784541165119060200160405180910390a2505050565b6105ed83838360405180602001604052806000815250610f80565b6000610a9960085490565b8210610afc5760405162461bcd60e51b815260206004820152602c60248201527f455243373231456e756d657261626c653a20676c6f62616c20696e646578206f60448201526b7574206f6620626f756e647360a01b60648201526084016104b7565b60088281548110610b1d57634e487b7160e01b600052603260045260246000fd5b90600052602060002001549050919050565b6000818152600260205260408120546001600160a01b0316806103b75760405162461bcd60e51b815260206004820152602960248201527f4552433732313a206f776e657220717565727920666f72206e6f6e657869737460448201526832b73a103a37b5b2b760b91b60648201526084016104b7565b600b5460405163e09c0c4760e01b81526000916001600160a01b03169063e09c0c4790610bf5906004016020808252600b908201526a3932bbb0b9322a37b5b2b760a91b604082015260600190565b60206040518083038186803b158015610c0d57600080fd5b505afa158015610c21573d6000803e3d6000fd5b505050506040513d601f19601f82011682018060405250810190610c459190612488565b90506001600160a01b038116610c5a57600080fd5b6000610c6533611589565b90508015610ce957336000908152600e6020526040902054610c879082611512565b336000818152600e6020526040908190209290925590517fee503bee2bb6a87e57bc57db795f98137327401a0e7b7ce42e37926cc1a9ca4d90610ccd9084815260200190565b60405180910390a2610ce96001600160a01b03831633836115b5565b5050565b60006001600160a01b038216610d585760405162461bcd60e51b815260206004820152602a60248201527f4552433732313a2062616c616e636520717565727920666f7220746865207a65604482015269726f206164647265737360b01b60648201526084016104b7565b506001600160a01b031660009081526003602052604090205490565b60006103b782611589565b6060600180546103cc9061299e565b6001600160a01b038216331415610de75760405162461bcd60e51b815260206004820152601960248201527f4552433732313a20617070726f766520746f2063616c6c65720000000000000060448201526064016104b7565b3360008181526005602090815260408083206001600160a01b03871680855290835292819020805460ff191686151590811790915590519081529192917f17307eab39ab6107e8899845ad3d59bd9653f200f220920489ca2b5937696c31910160405180910390a35050565b600b5460405163e09c0c4760e01b81526000916001600160a01b03169063e09c0c4790610e8290600401612819565b60206040518083038186803b158015610e9a57600080fd5b505afa158015610eae573d6000803e3d6000fd5b505050506040513d601f19601f82011682018060405250810190610ed29190612488565b604051630272d8c560e31b81523360048201526001600160a01b03868116602483015285811660448301526064820185905291925090821690631396c62890608401602060405180830381600087803b158015610f2e57600080fd5b505af1158015610f42573d6000803e3d6000fd5b505050506040513d601f19601f82011682018060405250810190610f66919061264f565b610f6f57600080fd5b610f7a8484846112f3565b50505050565b610f8a3383611209565b610fa65760405162461bcd60e51b81526004016104b79061283f565b610f7a848484846115e5565b60606103b782611618565b600b5460405163e09c0c4760e01b815260206004820152600e60248201526d6d616e756661637475726572563160901b60448201526000916001600160a01b03169063e09c0c479060640160206040518083038186803b15801561102057600080fd5b505afa158015611034573d6000803e3d6000fd5b505050506040513d601f19601f820116820180604052508101906110589190612488565b9050336001600160a01b038216146110b25760405162461bcd60e51b815260206004820152601a60248201527f446f206e6f742063616c6c20746869732066756e6374696f6e2100000000000060448201526064016104b7565b6110bd858584611787565b6110c7848461117e565b5050505050565b60006001600160e01b0319821663780e9d6360e01b14806103b757506103b7826117ba565b6000908152600260205260409020546001600160a01b0316151590565b600081815260046020526040902080546001600160a01b0319166001600160a01b038416908117909155819061114582610b2f565b6001600160a01b03167f8c5be1e5ebec7d5bd14f71427d1e84f3dd0314c0f7b2291e5b200ac8c7c3b92560405160405180910390a45050565b611187826110f3565b6111ea5760405162461bcd60e51b815260206004820152602e60248201527f45524337323155524953746f726167653a2055524920736574206f66206e6f6e60448201526d32bc34b9ba32b73a103a37b5b2b760911b60648201526084016104b7565b6000828152600a6020908152604090912082516105ed92840190612355565b6000611214826110f3565b6112755760405162461bcd60e51b815260206004820152602c60248201527f4552433732313a206f70657261746f7220717565727920666f72206e6f6e657860448201526b34b9ba32b73a103a37b5b2b760a11b60648201526084016104b7565b600061128083610b2f565b9050806001600160a01b0316846001600160a01b031614806112bb5750836001600160a01b03166112b08461044f565b6001600160a01b0316145b806112eb57506001600160a01b0380821660009081526005602090815260408083209388168352929052205460ff165b949350505050565b826001600160a01b031661130682610b2f565b6001600160a01b03161461136e5760405162461bcd60e51b815260206004820152602960248201527f4552433732313a207472616e73666572206f6620746f6b656e2074686174206960448201526839903737ba1037bbb760b91b60648201526084016104b7565b6001600160a01b0382166113d05760405162461bcd60e51b8152602060048201526024808201527f4552433732313a207472616e7366657220746f20746865207a65726f206164646044820152637265737360e01b60648201526084016104b7565b6113db83838361180a565b6113e6600082611110565b6001600160a01b038316600090815260036020526040812080546001929061140f90849061295b565b90915550506001600160a01b038216600090815260036020526040812080546001929061143d9084906128d1565b909155505060008181526002602052604080822080546001600160a01b0319166001600160a01b0386811691821790925591518493918716917fddf252ad1be2c89b69c2b068fc378daa952ba7f163c4a11628f55a4df523b3ef91a4505050565b60006114aa82846128fd565b9392505050565b600081818112156103b757600080fd5b6000806114ce8385612890565b9050600083121580156114e15750838112155b806114f657506000831280156114f657508381125b6114aa57600080fd5b60008082121561150e57600080fd5b5090565b60006114aa82846128d1565b6040516001600160a01b0380851660248301528316604482015260648101829052610f7a9085906323b872dd60e01b906084015b60408051601f198184030181529190526020810180516001600160e01b03166001600160e01b031990931692909217909152611a0c565b6001600160a01b0381166000908152600e60205260408120546103b7906115af84610722565b90611ade565b6040516001600160a01b0383166024820152604481018290526105ed90849063a9059cbb60e01b90606401611552565b6115f08484846112f3565b6115fc84848484611aea565b610f7a5760405162461bcd60e51b81526004016104b7906127c7565b6060611623826110f3565b6116895760405162461bcd60e51b815260206004820152603160248201527f45524337323155524953746f726167653a2055524920717565727920666f72206044820152703737b732bc34b9ba32b73a103a37b5b2b760791b60648201526084016104b7565b6000828152600a6020526040812080546116a29061299e565b80601f01602080910402602001604051908101604052809291908181526020018280546116ce9061299e565b801561171b5780601f106116f05761010080835404028352916020019161171b565b820191906000526020600020905b8154815290600101906020018083116116fe57829003601f168201915b50505050509050600061173960408051602081019091526000815290565b905080516000141561174c575092915050565b81511561177e578082604051602001611766929190612748565b60405160208183030381529060405292505050919050565b6112eb84611bf7565b6117918383611cce565b61179e6000848484611aea565b6105ed5760405162461bcd60e51b81526004016104b7906127c7565b60006001600160e01b031982166380ac58cd60e01b14806117eb57506001600160e01b03198216635b5e139f60e01b145b806103b757506301ffc9a760e01b6001600160e01b03198316146103b7565b600b5460405163e09c0c4760e01b81526000916001600160a01b03169063e09c0c479061183990600401612819565b60206040518083038186803b15801561185157600080fd5b505afa158015611865573d6000803e3d6000fd5b505050506040513d601f19601f820116820180604052508101906118899190612488565b604051630987df0360e01b81523360048201526001600160a01b03868116602483015285811660448301526064820185905291925090821690630987df0390608401602060405180830381600087803b1580156118e557600080fd5b505af11580156118f9573d6000803e3d6000fd5b505050506040513d601f19601f8201168201806040525081019061191d919061264f565b61192657600080fd5b611931848484611e0d565b6001600160a01b03841661198a5761196c61194d600c546114b1565b6001600160a01b0385166000908152600d602052604090205490611ec5565b6001600160a01b0384166000908152600d6020526040902055610f7a565b6000611997600c546114b1565b6001600160a01b0386166000908152600d60205260409020549091506119bd90826114c1565b6001600160a01b038087166000908152600d602052604080822093909355908616815220546119ec9082611ec5565b6001600160a01b0385166000908152600d60205260409020555050505050565b6000611a61826040518060400160405280602081526020017f5361666545524332303a206c6f772d6c6576656c2063616c6c206661696c6564815250856001600160a01b0316611f119092919063ffffffff16565b8051909150156105ed5780806020019051810190611a7f919061264f565b6105ed5760405162461bcd60e51b815260206004820152602a60248201527f5361666545524332303a204552433230206f7065726174696f6e20646964206e6044820152691bdd081cdd58d8d9595960b21b60648201526084016104b7565b60006114aa828461295b565b60006001600160a01b0384163b15611bec57604051630a85bd0160e11b81526001600160a01b0385169063150b7a0290611b2e903390899088908890600401612777565b602060405180830381600087803b158015611b4857600080fd5b505af1925050508015611b78575060408051601f3d908101601f19168201909252611b7591810190612687565b60015b611bd2573d808015611ba6576040519150601f19603f3d011682016040523d82523d6000602084013e611bab565b606091505b508051611bca5760405162461bcd60e51b81526004016104b7906127c7565b805181602001fd5b6001600160e01b031916630a85bd0160e11b1490506112eb565b506001949350505050565b6060611c02826110f3565b611c665760405162461bcd60e51b815260206004820152602f60248201527f4552433732314d657461646174613a2055524920717565727920666f72206e6f60448201526e3732bc34b9ba32b73a103a37b5b2b760891b60648201526084016104b7565b6000611c7d60408051602081019091526000815290565b90506000815111611c9d57604051806020016040528060008152506114aa565b80611ca784611f20565b604051602001611cb8929190612748565b6040516020818303038152906040529392505050565b6001600160a01b038216611d245760405162461bcd60e51b815260206004820181905260248201527f4552433732313a206d696e7420746f20746865207a65726f206164647265737360448201526064016104b7565b611d2d816110f3565b15611d7a5760405162461bcd60e51b815260206004820152601c60248201527f4552433732313a20746f6b656e20616c7265616479206d696e7465640000000060448201526064016104b7565b611d866000838361180a565b6001600160a01b0382166000908152600360205260408120805460019290611daf9084906128d1565b909155505060008181526002602052604080822080546001600160a01b0319166001600160a01b03861690811790915590518392907fddf252ad1be2c89b69c2b068fc378daa952ba7f163c4a11628f55a4df523b3ef908290a45050565b6001600160a01b038316611e6857611e6381600880546000838152600960205260408120829055600182018355919091527ff3f7a9fe364faab93b216da50a3214154f22a0a2b415b23a84c8169e8b636ee30155565b611e8b565b816001600160a01b0316836001600160a01b031614611e8b57611e8b838261203a565b6001600160a01b038216611ea2576105ed816120d7565b826001600160a01b0316826001600160a01b0316146105ed576105ed82826121b0565b6000808212158015611ee0575082611edd838261291c565b13155b80611efe5750600082128015611efe575082611efc838261291c565b135b611f0757600080fd5b6114aa828461291c565b60606112eb84846000856121f4565b606081611f445750506040805180820190915260018152600360fc1b602082015290565b8160005b8115611f6e5780611f58816129d9565b9150611f679050600a836128e9565b9150611f48565b60008167ffffffffffffffff811115611f9757634e487b7160e01b600052604160045260246000fd5b6040519080825280601f01601f191660200182016040528015611fc1576020820181803683370190505b5090505b84156112eb57611fd660018361295b565b9150611fe3600a866129f4565b611fee9060306128d1565b60f81b81838151811061201157634e487b7160e01b600052603260045260246000fd5b60200101906001600160f81b031916908160001a905350612033600a866128e9565b9450611fc5565b6000600161204784610ced565b612051919061295b565b6000838152600760205260409020549091508082146120a4576001600160a01b03841660009081526006602090815260408083208584528252808320548484528184208190558352600790915290208190555b5060009182526007602090815260408084208490556001600160a01b039094168352600681528383209183525290812055565b6008546000906120e99060019061295b565b6000838152600960205260408120546008805493945090928490811061211f57634e487b7160e01b600052603260045260246000fd5b90600052602060002001549050806008838154811061214e57634e487b7160e01b600052603260045260246000fd5b600091825260208083209091019290925582815260099091526040808220849055858252812055600880548061219457634e487b7160e01b600052603160045260246000fd5b6001900381819060005260206000200160009055905550505050565b60006121bb83610ced565b6001600160a01b039093166000908152600660209081526040808320868452825280832085905593825260079052919091209190915550565b6060824710156122555760405162461bcd60e51b815260206004820152602660248201527f416464726573733a20696e73756666696369656e742062616c616e636520666f6044820152651c8818d85b1b60d21b60648201526084016104b7565b843b6122a35760405162461bcd60e51b815260206004820152601d60248201527f416464726573733a2063616c6c20746f206e6f6e2d636f6e747261637400000060448201526064016104b7565b600080866001600160a01b031685876040516122bf919061272c565b60006040518083038185875af1925050503d80600081146122fc576040519150601f19603f3d011682016040523d82523d6000602084013e612301565b606091505b509150915061231182828661231c565b979650505050505050565b6060831561232b5750816114aa565b82511561233b5782518084602001fd5b8160405162461bcd60e51b81526004016104b791906127b4565b8280546123619061299e565b90600052602060002090601f01602090048101928261238357600085556123c9565b82601f1061239c57805160ff19168380011785556123c9565b828001600101855582156123c9579182015b828111156123c95782518255916020019190600101906123ae565b5061150e9291505b8082111561150e57600081556001016123d1565b600082601f8301126123f5578081fd5b813567ffffffffffffffff8082111561241057612410612a34565b604051601f8301601f19908116603f0116810190828211818310171561243857612438612a34565b81604052838152866020858801011115612450578485fd5b8360208701602083013792830160200193909352509392505050565b60006020828403121561247d578081fd5b81356114aa81612a4a565b600060208284031215612499578081fd5b81516114aa81612a4a565b600080604083850312156124b6578081fd5b82356124c181612a4a565b915060208301356124d181612a4a565b809150509250929050565b6000806000606084860312156124f0578081fd5b83356124fb81612a4a565b9250602084013561250b81612a4a565b929592945050506040919091013590565b60008060008060808587031215612531578081fd5b843561253c81612a4a565b9350602085013561254c81612a4a565b925060408501359150606085013567ffffffffffffffff81111561256e578182fd5b61257a878288016123e5565b91505092959194509250565b60008060408385031215612598578182fd5b82356125a381612a4a565b915060208301356124d181612a62565b600080604083850312156125c5578182fd5b82356125d081612a4a565b946020939093013593505050565b600080600080608085870312156125f3578384fd5b84356125fe81612a4a565b935060208501359250604085013567ffffffffffffffff80821115612621578384fd5b61262d888389016123e5565b93506060870135915080821115612642578283fd5b5061257a878288016123e5565b600060208284031215612660578081fd5b81516114aa81612a62565b60006020828403121561267c578081fd5b81356114aa81612a70565b600060208284031215612698578081fd5b81516114aa81612a70565b6000602082840312156126b4578081fd5b5035919050565b600080604083850312156126cd578081fd5b82359150602083013567ffffffffffffffff8111156126ea578182fd5b6126f6858286016123e5565b9150509250929050565b60008151808452612718816020860160208601612972565b601f01601f19169290920160200192915050565b6000825161273e818460208701612972565b9190910192915050565b6000835161275a818460208801612972565b83519083019061276e818360208801612972565b01949350505050565b6001600160a01b03858116825284166020820152604081018390526080606082018190526000906127aa90830184612700565b9695505050505050565b6020815260006114aa6020830184612700565b60208082526032908201527f4552433732313a207472616e7366657220746f206e6f6e20455243373231526560408201527131b2b4bb32b91034b6b83632b6b2b73a32b960711b606082015260800190565b6020808252600c908201526b73746174696f6e486f6f6b7360a01b604082015260600190565b60208082526031908201527f4552433732313a207472616e736665722063616c6c6572206973206e6f74206f6040820152701ddb995c881b9bdc88185c1c1c9bdd9959607a1b606082015260800190565b600080821280156001600160ff1b03849003851316156128b2576128b2612a08565b600160ff1b83900384128116156128cb576128cb612a08565b50500190565b600082198211156128e4576128e4612a08565b500190565b6000826128f8576128f8612a1e565b500490565b600081600019048311821515161561291757612917612a08565b500290565b60008083128015600160ff1b85018412161561293a5761293a612a08565b6001600160ff1b038401831381161561295557612955612a08565b50500390565b60008282101561296d5761296d612a08565b500390565b60005b8381101561298d578181015183820152602001612975565b83811115610f7a5750506000910152565b600181811c908216806129b257607f821691505b602082108114156129d357634e487b7160e01b600052602260045260246000fd5b50919050565b60006000198214156129ed576129ed612a08565b5060010190565b600082612a0357612a03612a1e565b500690565b634e487b7160e01b600052601160045260246000fd5b634e487b7160e01b600052601260045260246000fd5b634e487b7160e01b600052604160045260246000fd5b6001600160a01b0381168114612a5f57600080fd5b50565b8015158114612a5f57600080fd5b6001600160e01b031981168114612a5f57600080fdfea2646970667358221220f8b3bd7924d0d5060c835c40d67109516b8dd28463f1ce7845a488ffa23c9acb64736f6c63430008040033",
  "devdoc": {
    "author": "Roger Wu (https://github.com/roger-wu) & Captain Isaac A.",
    "details": "A mintable ERC20 token that allows anyone to pay and distribute a target token  to token holders as dividends and allows token holders to withdraw their dividends.  Reference: the source code of PoWH3D: https://etherscan.io/address/0xB3775fB83F7D12A36E0475aBdD1FCA35c091efBe#code",
    "events": {
      "DividendWithdrawn(address,uint256)": {
        "details": "This event MUST emit when an address withdraws their dividend.",
        "params": {
          "to": "The address which withdraws target from this contract.",
          "weiAmount": "The amount of withdrawn target in wei."
        }
      },
      "DividendsDistributed(address,uint256)": {
        "details": "This event MUST emit when target is distributed to token holders.",
        "params": {
          "from": "The address which sends target to this contract.",
          "weiAmount": "The amount of distributed target in wei."
        }
      }
    },
    "kind": "dev",
    "methods": {
      "accumulativeDividendOf(address)": {
        "details": "accumulativeDividendOf(_owner) = withdrawableDividendOf(_owner) + withdrawnDividendOf(_owner) = (magnifiedDividendPerShare * balanceOf(_owner) + magnifiedDividendCorrections[_owner]) / magnitude",
        "params": {
          "_owner": "The address of a token holder."
        },
        "returns": {
          "_0": "The amount of dividend in wei that `_owner` has earned in total."
        }
      },
      "approve(address,uint256)": {
        "details": "See {IERC721-approve}."
      },
      "balanceOf(address)": {
        "details": "See {IERC721-balanceOf}."
      },
      "distributeDividends(uint256)": {
        "details": "It reverts if the total supply of tokens is 0. It emits the `DividendsDistributed` event if the amount of received target is greater than 0. About undistributed target tokens:   In each distribution, there is a small amount of target not distributed,     the magnified amount of which is     `(amount * magnitude) % totalSupply()`.   With a well-chosen `magnitude`, the amount of undistributed target     (de-magnified) in a distribution can be less than 1 wei.   We can actually keep track of the undistributed target in a distribution     and try to distribute it in the next distribution,     but keeping track of such data on-chain costs much more than     the saved target, so we don't do that."
      },
      "dividendOf(address)": {
        "params": {
          "_owner": "The address of a token holder."
        },
        "returns": {
          "_0": "The amount of dividend in wei that `_owner` can withdraw."
        }
      },
      "getApproved(uint256)": {
        "details": "See {IERC721-getApproved}."
      },
      "isApprovedForAll(address,address)": {
        "details": "See {IERC721-isApprovedForAll}."
      },
      "name()": {
        "details": "See {IERC721Metadata-name}."
      },
      "ownerOf(uint256)": {
        "details": "See {IERC721-ownerOf}."
      },
      "safeTransferFrom(address,address,uint256)": {
        "details": "See {IERC721-safeTransferFrom}."
      },
      "safeTransferFrom(address,address,uint256,bytes)": {
        "details": "See {IERC721-safeTransferFrom}."
      },
      "setApprovalForAll(address,bool)": {
        "details": "See {IERC721-setApprovalForAll}."
      },
      "symbol()": {
        "details": "See {IERC721Metadata-symbol}."
      },
      "tokenByIndex(uint256)": {
        "details": "See {IERC721Enumerable-tokenByIndex}."
      },
      "tokenOfOwnerByIndex(address,uint256)": {
        "details": "See {IERC721Enumerable-tokenOfOwnerByIndex}."
      },
      "totalSupply()": {
        "details": "See {IERC721Enumerable-totalSupply}."
      },
      "transferFrom(address,address,uint256)": {
        "details": "See {IERC721-transferFrom}."
      },
      "withdrawDividend()": {
        "details": "It emits a `DividendWithdrawn` event if the amount of withdrawn target is greater than 0."
      },
      "withdrawnDividendOf(address)": {
        "params": {
          "_owner": "The address of a token holder."
        },
        "returns": {
          "_0": "The amount of dividend in wei that `_owner` has withdrawn."
        }
      }
    },
    "title": "Dividend-Paying Token",
    "version": 1
  },
  "userdoc": {
    "kind": "user",
    "methods": {
      "accumulativeDividendOf(address)": {
        "notice": "View the amount of dividend in wei that an address has earned in total."
      },
      "distributeDividends(uint256)": {
        "notice": "Distributes target to token holders as dividends."
      },
      "dividendOf(address)": {
        "notice": "View the amount of dividend in wei that an address can withdraw."
      },
      "withdrawDividend()": {
        "notice": "Withdraws the target distributed to the sender."
      },
      "withdrawnDividendOf(address)": {
        "notice": "View the amount of dividend in wei that an address has withdrawn."
      }
    },
    "version": 1
  },
  "storageLayout": {
    "storage": [
      {
        "astId": 327,
        "contract": "contracts/Station.sol:Station",
        "label": "_name",
        "offset": 0,
        "slot": "0",
        "type": "t_string_storage"
      },
      {
        "astId": 329,
        "contract": "contracts/Station.sol:Station",
        "label": "_symbol",
        "offset": 0,
        "slot": "1",
        "type": "t_string_storage"
      },
      {
        "astId": 333,
        "contract": "contracts/Station.sol:Station",
        "label": "_owners",
        "offset": 0,
        "slot": "2",
        "type": "t_mapping(t_uint256,t_address)"
      },
      {
        "astId": 337,
        "contract": "contracts/Station.sol:Station",
        "label": "_balances",
        "offset": 0,
        "slot": "3",
        "type": "t_mapping(t_address,t_uint256)"
      },
      {
        "astId": 341,
        "contract": "contracts/Station.sol:Station",
        "label": "_tokenApprovals",
        "offset": 0,
        "slot": "4",
        "type": "t_mapping(t_uint256,t_address)"
      },
      {
        "astId": 347,
        "contract": "contracts/Station.sol:Station",
        "label": "_operatorApprovals",
        "offset": 0,
        "slot": "5",
        "type": "t_mapping(t_address,t_mapping(t_address,t_bool))"
      },
      {
        "astId": 1268,
        "contract": "contracts/Station.sol:Station",
        "label": "_ownedTokens",
        "offset": 0,
        "slot": "6",
        "type": "t_mapping(t_address,t_mapping(t_uint256,t_uint256))"
      },
      {
        "astId": 1272,
        "contract": "contracts/Station.sol:Station",
        "label": "_ownedTokensIndex",
        "offset": 0,
        "slot": "7",
        "type": "t_mapping(t_uint256,t_uint256)"
      },
      {
        "astId": 1275,
        "contract": "contracts/Station.sol:Station",
        "label": "_allTokens",
        "offset": 0,
        "slot": "8",
        "type": "t_array(t_uint256)dyn_storage"
      },
      {
        "astId": 1279,
        "contract": "contracts/Station.sol:Station",
        "label": "_allTokensIndex",
        "offset": 0,
        "slot": "9",
        "type": "t_mapping(t_uint256,t_uint256)"
      },
      {
        "astId": 1604,
        "contract": "contracts/Station.sol:Station",
        "label": "_tokenURIs",
        "offset": 0,
        "slot": "10",
        "type": "t_mapping(t_uint256,t_string_storage)"
      },
      {
        "astId": 2942,
        "contract": "contracts/Station.sol:Station",
        "label": "registry",
        "offset": 0,
        "slot": "11",
        "type": "t_contract(IRegistry)2885"
      },
      {
        "astId": 2949,
        "contract": "contracts/Station.sol:Station",
        "label": "magnifiedDividendPerShare",
        "offset": 0,
        "slot": "12",
        "type": "t_uint256"
      },
      {
        "astId": 2953,
        "contract": "contracts/Station.sol:Station",
        "label": "magnifiedDividendCorrections",
        "offset": 0,
        "slot": "13",
        "type": "t_mapping(t_address,t_int256)"
      },
      {
        "astId": 2957,
        "contract": "contracts/Station.sol:Station",
        "label": "withdrawnDividends",
        "offset": 0,
        "slot": "14",
        "type": "t_mapping(t_address,t_uint256)"
      }
    ],
    "types": {
      "t_address": {
        "encoding": "inplace",
        "label": "address",
        "numberOfBytes": "20"
      },
      "t_array(t_uint256)dyn_storage": {
        "base": "t_uint256",
        "encoding": "dynamic_array",
        "label": "uint256[]",
        "numberOfBytes": "32"
      },
      "t_bool": {
        "encoding": "inplace",
        "label": "bool",
        "numberOfBytes": "1"
      },
      "t_contract(IRegistry)2885": {
        "encoding": "inplace",
        "label": "contract IRegistry",
        "numberOfBytes": "20"
      },
      "t_int256": {
        "encoding": "inplace",
        "label": "int256",
        "numberOfBytes": "32"
      },
      "t_mapping(t_address,t_bool)": {
        "encoding": "mapping",
        "key": "t_address",
        "label": "mapping(address => bool)",
        "numberOfBytes": "32",
        "value": "t_bool"
      },
      "t_mapping(t_address,t_int256)": {
        "encoding": "mapping",
        "key": "t_address",
        "label": "mapping(address => int256)",
        "numberOfBytes": "32",
        "value": "t_int256"
      },
      "t_mapping(t_address,t_mapping(t_address,t_bool))": {
        "encoding": "mapping",
        "key": "t_address",
        "label": "mapping(address => mapping(address => bool))",
        "numberOfBytes": "32",
        "value": "t_mapping(t_address,t_bool)"
      },
      "t_mapping(t_address,t_mapping(t_uint256,t_uint256))": {
        "encoding": "mapping",
        "key": "t_address",
        "label": "mapping(address => mapping(uint256 => uint256))",
        "numberOfBytes": "32",
        "value": "t_mapping(t_uint256,t_uint256)"
      },
      "t_mapping(t_address,t_uint256)": {
        "encoding": "mapping",
        "key": "t_address",
        "label": "mapping(address => uint256)",
        "numberOfBytes": "32",
        "value": "t_uint256"
      },
      "t_mapping(t_uint256,t_address)": {
        "encoding": "mapping",
        "key": "t_uint256",
        "label": "mapping(uint256 => address)",
        "numberOfBytes": "32",
        "value": "t_address"
      },
      "t_mapping(t_uint256,t_string_storage)": {
        "encoding": "mapping",
        "key": "t_uint256",
        "label": "mapping(uint256 => string)",
        "numberOfBytes": "32",
        "value": "t_string_storage"
      },
      "t_mapping(t_uint256,t_uint256)": {
        "encoding": "mapping",
        "key": "t_uint256",
        "label": "mapping(uint256 => uint256)",
        "numberOfBytes": "32",
        "value": "t_uint256"
      },
      "t_string_storage": {
        "encoding": "bytes",
        "label": "string",
        "numberOfBytes": "32"
      },
      "t_uint256": {
        "encoding": "inplace",
        "label": "uint256",
        "numberOfBytes": "32"
      }
    }
  }
}