{
  "address": "0x58f07FBC9a0F3f19C375064F0e8eE61448b56757",
  "abi": [
    {
      "inputs": [
        {
          "internalType": "address",
          "name": "",
          "type": "address"
        },
        {
          "internalType": "uint256",
          "name": "",
          "type": "uint256"
        }
      ],
      "name": "onDistribute",
      "outputs": [
        {
          "internalType": "bool",
          "name": "",
          "type": "bool"
        }
      ],
      "stateMutability": "nonpayable",
      "type": "function"
    },
    {
      "inputs": [
        {
          "internalType": "address",
          "name": "",
          "type": "address"
        },
        {
          "internalType": "address",
          "name": "",
          "type": "address"
        },
        {
          "internalType": "address",
          "name": "",
          "type": "address"
        },
        {
          "internalType": "uint256",
          "name": "",
          "type": "uint256"
        }
      ],
      "name": "onSeize",
      "outputs": [
        {
          "internalType": "bool",
          "name": "",
          "type": "bool"
        }
      ],
      "stateMutability": "nonpayable",
      "type": "function"
    },
    {
      "inputs": [
        {
          "internalType": "address",
          "name": "",
          "type": "address"
        },
        {
          "internalType": "address",
          "name": "",
          "type": "address"
        },
        {
          "internalType": "address",
          "name": "",
          "type": "address"
        },
        {
          "internalType": "uint256",
          "name": "",
          "type": "uint256"
        }
      ],
      "name": "onTransfer",
      "outputs": [
        {
          "internalType": "bool",
          "name": "",
          "type": "bool"
        }
      ],
      "stateMutability": "nonpayable",
      "type": "function"
    }
  ],
  "transactionHash": "0xa56b72febb5a36aad49559669eb0f47e1316aa0aa8c223adcc7eadfd69010dd1",
  "args": [],
  "solcInputHash": "428d718a4c2835f3bd5d97f92d6537c4",
  "bytecode": "0x608060405234801561001057600080fd5b50610165806100206000396000f3fe608060405234801561001057600080fd5b50600436106100415760003560e01c80630987df03146100465780631396c62814610072578063d14b763a1461008a575b600080fd5b61005e6100543660046100bc565b6001949350505050565b604051901515815260200160405180910390f35b61005e6100803660046100bc565b6000949350505050565b61005e610098366004610106565b600092915050565b80356001600160a01b03811681146100b757600080fd5b919050565b600080600080608085870312156100d1578384fd5b6100da856100a0565b93506100e8602086016100a0565b92506100f6604086016100a0565b9396929550929360600135925050565b60008060408385031215610118578182fd5b610121836100a0565b94602093909301359350505056fea2646970667358221220d0b1ad08c73404dac5724cd1378b6d1d71b4b7a9b083f3e87b9b40b44fbe161764736f6c63430008040033",
  "devdoc": {
    "kind": "dev",
    "methods": {},
    "version": 1
  },
  "userdoc": {
    "kind": "user",
    "methods": {},
    "version": 1
  },
  "storageLayout": {
    "storage": [
      {
        "astId": 3,
        "contract": "contracts/StationHooks.sol:StationHooks",
        "label": "shh",
        "offset": 0,
        "slot": "0",
        "type": "t_bool"
      }
    ],
    "types": {
      "t_bool": {
        "encoding": "inplace",
        "label": "bool",
        "numberOfBytes": "1"
      }
    }
  }
}